{"abi":[{"inputs":[{"internalType":"uint256","name":"minimum","type":"uint256"}],"name":"createCampaign","outputs":[],"stateMutability":"nonpayable","type":"function"},{"inputs":[{"internalType":"uint256","name":"","type":"uint256"}],"name":"deplopyedCampaigns","outputs":[{"internalType":"address","name":"","type":"address"}],"stateMutability":"view","type":"function"},{"inputs":[],"name":"getDeployedCampaigns","outputs":[{"internalType":"address[]","name":"","type":"address[]"}],"stateMutability":"view","type":"function"}],"devdoc":{"kind":"dev","methods":{},"version":1},"evm":{"assembly":"    /* \"Campaign.sol\":25:390  contract CampaignFactory{... */\n  mstore(0x40, 0x80)\n  callvalue\n  dup1\n  iszero\n  tag_1\n  jumpi\n  0x00\n  dup1\n  revert\ntag_1:\n  pop\n  dataSize(sub_0)\n  dup1\n  dataOffset(sub_0)\n  0x00\n  codecopy\n  0x00\n  return\nstop\n\nsub_0: assembly {\n        /* \"Campaign.sol\":25:390  contract CampaignFactory{... */\n      mstore(0x40, 0x80)\n      callvalue\n      dup1\n      iszero\n      tag_1\n      jumpi\n      0x00\n      dup1\n      revert\n    tag_1:\n      pop\n      jumpi(tag_2, lt(calldatasize, 0x04))\n      shr(0xe0, calldataload(0x00))\n      dup1\n      0x4acb9d4f\n      eq\n      tag_3\n      jumpi\n      dup1\n      0x60bf4744\n      eq\n      tag_4\n      jumpi\n      dup1\n      0xa3303a75\n      eq\n      tag_5\n      jumpi\n    tag_2:\n      0x00\n      dup1\n      revert\n        /* \"Campaign.sol\":277:388  function getDeployedCampaigns() public view returns(address[] memory){... */\n    tag_3:\n      tag_6\n      tag_7\n      jump\t// in\n    tag_6:\n      mload(0x40)\n      tag_8\n      swap2\n      swap1\n      tag_9\n      jump\t// in\n    tag_8:\n      mload(0x40)\n      dup1\n      swap2\n      sub\n      swap1\n      return\n        /* \"Campaign.sol\":55:90  address[] public deplopyedCampaigns */\n    tag_4:\n      tag_10\n      0x04\n      dup1\n      calldatasize\n      sub\n      dup2\n      add\n      swap1\n      tag_11\n      swap2\n      swap1\n      tag_12\n      jump\t// in\n    tag_11:\n      tag_13\n      jump\t// in\n    tag_10:\n      mload(0x40)\n      tag_14\n      swap2\n      swap1\n      tag_15\n      jump\t// in\n    tag_14:\n      mload(0x40)\n      dup1\n      swap2\n      sub\n      swap1\n      return\n        /* \"Campaign.sol\":98:271  function createCampaign(uint minimum) public{... */\n    tag_5:\n      tag_16\n      0x04\n      dup1\n      calldatasize\n      sub\n      dup2\n      add\n      swap1\n      tag_17\n      swap2\n      swap1\n      tag_12\n      jump\t// in\n    tag_17:\n      tag_18\n      jump\t// in\n    tag_16:\n      stop\n        /* \"Campaign.sol\":277:388  function getDeployedCampaigns() public view returns(address[] memory){... */\n    tag_7:\n        /* \"Campaign.sol\":329:345  address[] memory */\n      0x60\n        /* \"Campaign.sol\":363:381  deplopyedCampaigns */\n      0x00\n        /* \"Campaign.sol\":356:381  return deplopyedCampaigns */\n      dup1\n      sload\n      dup1\n      0x20\n      mul\n      0x20\n      add\n      mload(0x40)\n      swap1\n      dup2\n      add\n      0x40\n      mstore\n      dup1\n      swap3\n      swap2\n      swap1\n      dup2\n      dup2\n      mstore\n      0x20\n      add\n      dup3\n      dup1\n      sload\n      dup1\n      iszero\n      tag_20\n      jumpi\n      0x20\n      mul\n      dup3\n      add\n      swap2\n      swap1\n      0x00\n      mstore\n      keccak256(0x00, 0x20)\n      swap1\n    tag_21:\n      dup2\n      0x00\n      swap1\n      sload\n      swap1\n      0x0100\n      exp\n      swap1\n      div\n      0xffffffffffffffffffffffffffffffffffffffff\n      and\n      0xffffffffffffffffffffffffffffffffffffffff\n      and\n      dup2\n      mstore\n      0x20\n      add\n      swap1\n      0x01\n      add\n      swap1\n      dup1\n      dup4\n      gt\n      tag_21\n      jumpi\n    tag_20:\n      pop\n      pop\n      pop\n      pop\n      pop\n      swap1\n      pop\n        /* \"Campaign.sol\":277:388  function getDeployedCampaigns() public view returns(address[] memory){... */\n      swap1\n      jump\t// out\n        /* \"Campaign.sol\":55:90  address[] public deplopyedCampaigns */\n    tag_13:\n      0x00\n      dup2\n      dup2\n      sload\n      dup2\n      lt\n      tag_22\n      jumpi\n      0x00\n      dup1\n      revert\n    tag_22:\n      swap1\n      0x00\n      mstore\n      keccak256(0x00, 0x20)\n      add\n      0x00\n      swap2\n      pop\n      sload\n      swap1\n      0x0100\n      exp\n      swap1\n      div\n      0xffffffffffffffffffffffffffffffffffffffff\n      and\n      dup2\n      jump\t// out\n        /* \"Campaign.sol\":98:271  function createCampaign(uint minimum) public{... */\n    tag_18:\n        /* \"Campaign.sol\":152:171  address newCampaign */\n      0x00\n        /* \"Campaign.sol\":195:202  minimum */\n      dup2\n        /* \"Campaign.sol\":204:214  msg.sender */\n      caller\n        /* \"Campaign.sol\":182:215  new Campaign(minimum, msg.sender) */\n      mload(0x40)\n      tag_25\n      swap1\n      tag_26\n      jump\t// in\n    tag_25:\n      tag_27\n      swap3\n      swap2\n      swap1\n      tag_28\n      jump\t// in\n    tag_27:\n      mload(0x40)\n      dup1\n      swap2\n      sub\n      swap1\n      0x00\n      create\n      dup1\n      iszero\n      dup1\n      iszero\n      tag_29\n      jumpi\n      returndatasize\n      0x00\n      dup1\n      returndatacopy\n      revert(0x00, returndatasize)\n    tag_29:\n      pop\n        /* \"Campaign.sol\":152:216  address newCampaign = address(new Campaign(minimum, msg.sender)) */\n      swap1\n      pop\n        /* \"Campaign.sol\":227:245  deplopyedCampaigns */\n      0x00\n        /* \"Campaign.sol\":251:262  newCampaign */\n      dup2\n        /* \"Campaign.sol\":227:263  deplopyedCampaigns.push(newCampaign) */\n      swap1\n      dup1\n      0x01\n      dup2\n      sload\n      add\n      dup1\n      dup3\n      sstore\n      dup1\n      swap2\n      pop\n      pop\n      0x01\n      swap1\n      sub\n      swap1\n      0x00\n      mstore\n      keccak256(0x00, 0x20)\n      add\n      0x00\n      swap1\n      swap2\n      swap1\n      swap2\n      swap1\n      swap2\n      0x0100\n      exp\n      dup2\n      sload\n      dup2\n      0xffffffffffffffffffffffffffffffffffffffff\n      mul\n      not\n      and\n      swap1\n      dup4\n      0xffffffffffffffffffffffffffffffffffffffff\n      and\n      mul\n      or\n      swap1\n      sstore\n      pop\n        /* \"Campaign.sol\":142:271  {... */\n      pop\n        /* \"Campaign.sol\":98:271  function createCampaign(uint minimum) public{... */\n      pop\n      jump\t// out\n    tag_26:\n      dataSize(sub_0)\n      dup1\n      dataOffset(sub_0)\n      dup4\n      codecopy\n      add\n      swap1\n      jump\t// out\n        /* \"#utility.yul\":7:121   */\n    tag_31:\n        /* \"#utility.yul\":74:80   */\n      0x00\n        /* \"#utility.yul\":108:113   */\n      dup2\n        /* \"#utility.yul\":102:114   */\n      mload\n        /* \"#utility.yul\":92:114   */\n      swap1\n      pop\n        /* \"#utility.yul\":7:121   */\n      swap2\n      swap1\n      pop\n      jump\t// out\n        /* \"#utility.yul\":127:311   */\n    tag_32:\n        /* \"#utility.yul\":226:237   */\n      0x00\n        /* \"#utility.yul\":260:266   */\n      dup3\n        /* \"#utility.yul\":255:258   */\n      dup3\n        /* \"#utility.yul\":248:267   */\n      mstore\n        /* \"#utility.yul\":300:304   */\n      0x20\n        /* \"#utility.yul\":295:298   */\n      dup3\n        /* \"#utility.yul\":291:305   */\n      add\n        /* \"#utility.yul\":276:305   */\n      swap1\n      pop\n        /* \"#utility.yul\":127:311   */\n      swap3\n      swap2\n      pop\n      pop\n      jump\t// out\n        /* \"#utility.yul\":317:449   */\n    tag_33:\n        /* \"#utility.yul\":384:388   */\n      0x00\n        /* \"#utility.yul\":407:410   */\n      dup2\n        /* \"#utility.yul\":399:410   */\n      swap1\n      pop\n        /* \"#utility.yul\":437:441   */\n      0x20\n        /* \"#utility.yul\":432:435   */\n      dup3\n        /* \"#utility.yul\":428:442   */\n      add\n        /* \"#utility.yul\":420:442   */\n      swap1\n      pop\n        /* \"#utility.yul\":317:449   */\n      swap2\n      swap1\n      pop\n      jump\t// out\n        /* \"#utility.yul\":455:581   */\n    tag_34:\n        /* \"#utility.yul\":492:499   */\n      0x00\n        /* \"#utility.yul\":532:574   */\n      0xffffffffffffffffffffffffffffffffffffffff\n        /* \"#utility.yul\":525:530   */\n      dup3\n        /* \"#utility.yul\":521:575   */\n      and\n        /* \"#utility.yul\":510:575   */\n      swap1\n      pop\n        /* \"#utility.yul\":455:581   */\n      swap2\n      swap1\n      pop\n      jump\t// out\n        /* \"#utility.yul\":587:683   */\n    tag_35:\n        /* \"#utility.yul\":624:631   */\n      0x00\n        /* \"#utility.yul\":653:677   */\n      tag_54\n        /* \"#utility.yul\":671:676   */\n      dup3\n        /* \"#utility.yul\":653:677   */\n      tag_34\n      jump\t// in\n    tag_54:\n        /* \"#utility.yul\":642:677   */\n      swap1\n      pop\n        /* \"#utility.yul\":587:683   */\n      swap2\n      swap1\n      pop\n      jump\t// out\n        /* \"#utility.yul\":689:797   */\n    tag_36:\n        /* \"#utility.yul\":766:790   */\n      tag_56\n        /* \"#utility.yul\":784:789   */\n      dup2\n        /* \"#utility.yul\":766:790   */\n      tag_35\n      jump\t// in\n    tag_56:\n        /* \"#utility.yul\":761:764   */\n      dup3\n        /* \"#utility.yul\":754:791   */\n      mstore\n        /* \"#utility.yul\":689:797   */\n      pop\n      pop\n      jump\t// out\n        /* \"#utility.yul\":803:982   */\n    tag_37:\n        /* \"#utility.yul\":872:882   */\n      0x00\n        /* \"#utility.yul\":893:939   */\n      tag_58\n        /* \"#utility.yul\":935:938   */\n      dup4\n        /* \"#utility.yul\":927:933   */\n      dup4\n        /* \"#utility.yul\":893:939   */\n      tag_36\n      jump\t// in\n    tag_58:\n        /* \"#utility.yul\":971:975   */\n      0x20\n        /* \"#utility.yul\":966:969   */\n      dup4\n        /* \"#utility.yul\":962:976   */\n      add\n        /* \"#utility.yul\":948:976   */\n      swap1\n      pop\n        /* \"#utility.yul\":803:982   */\n      swap3\n      swap2\n      pop\n      pop\n      jump\t// out\n        /* \"#utility.yul\":988:1101   */\n    tag_38:\n        /* \"#utility.yul\":1058:1062   */\n      0x00\n        /* \"#utility.yul\":1090:1094   */\n      0x20\n        /* \"#utility.yul\":1085:1088   */\n      dup3\n        /* \"#utility.yul\":1081:1095   */\n      add\n        /* \"#utility.yul\":1073:1095   */\n      swap1\n      pop\n        /* \"#utility.yul\":988:1101   */\n      swap2\n      swap1\n      pop\n      jump\t// out\n        /* \"#utility.yul\":1137:1869   */\n    tag_39:\n        /* \"#utility.yul\":1256:1259   */\n      0x00\n        /* \"#utility.yul\":1285:1339   */\n      tag_61\n        /* \"#utility.yul\":1333:1338   */\n      dup3\n        /* \"#utility.yul\":1285:1339   */\n      tag_31\n      jump\t// in\n    tag_61:\n        /* \"#utility.yul\":1355:1441   */\n      tag_62\n        /* \"#utility.yul\":1434:1440   */\n      dup2\n        /* \"#utility.yul\":1429:1432   */\n      dup6\n        /* \"#utility.yul\":1355:1441   */\n      tag_32\n      jump\t// in\n    tag_62:\n        /* \"#utility.yul\":1348:1441   */\n      swap4\n      pop\n        /* \"#utility.yul\":1465:1521   */\n      tag_63\n        /* \"#utility.yul\":1515:1520   */\n      dup4\n        /* \"#utility.yul\":1465:1521   */\n      tag_33\n      jump\t// in\n    tag_63:\n        /* \"#utility.yul\":1544:1551   */\n      dup1\n        /* \"#utility.yul\":1575:1576   */\n      0x00\n        /* \"#utility.yul\":1560:1844   */\n    tag_64:\n        /* \"#utility.yul\":1585:1591   */\n      dup4\n        /* \"#utility.yul\":1582:1583   */\n      dup2\n        /* \"#utility.yul\":1579:1592   */\n      lt\n        /* \"#utility.yul\":1560:1844   */\n      iszero\n      tag_66\n      jumpi\n        /* \"#utility.yul\":1661:1667   */\n      dup2\n        /* \"#utility.yul\":1655:1668   */\n      mload\n        /* \"#utility.yul\":1688:1751   */\n      tag_67\n        /* \"#utility.yul\":1747:1750   */\n      dup9\n        /* \"#utility.yul\":1732:1745   */\n      dup3\n        /* \"#utility.yul\":1688:1751   */\n      tag_37\n      jump\t// in\n    tag_67:\n        /* \"#utility.yul\":1681:1751   */\n      swap8\n      pop\n        /* \"#utility.yul\":1774:1834   */\n      tag_68\n        /* \"#utility.yul\":1827:1833   */\n      dup4\n        /* \"#utility.yul\":1774:1834   */\n      tag_38\n      jump\t// in\n    tag_68:\n        /* \"#utility.yul\":1764:1834   */\n      swap3\n      pop\n        /* \"#utility.yul\":1620:1844   */\n      pop\n        /* \"#utility.yul\":1607:1608   */\n      0x01\n        /* \"#utility.yul\":1604:1605   */\n      dup2\n        /* \"#utility.yul\":1600:1609   */\n      add\n        /* \"#utility.yul\":1595:1609   */\n      swap1\n      pop\n        /* \"#utility.yul\":1560:1844   */\n      jump(tag_64)\n    tag_66:\n        /* \"#utility.yul\":1564:1578   */\n      pop\n        /* \"#utility.yul\":1860:1863   */\n      dup6\n        /* \"#utility.yul\":1853:1863   */\n      swap4\n      pop\n        /* \"#utility.yul\":1261:1869   */\n      pop\n      pop\n      pop\n        /* \"#utility.yul\":1137:1869   */\n      swap3\n      swap2\n      pop\n      pop\n      jump\t// out\n        /* \"#utility.yul\":1875:2248   */\n    tag_9:\n        /* \"#utility.yul\":2018:2022   */\n      0x00\n        /* \"#utility.yul\":2056:2058   */\n      0x20\n        /* \"#utility.yul\":2045:2054   */\n      dup3\n        /* \"#utility.yul\":2041:2059   */\n      add\n        /* \"#utility.yul\":2033:2059   */\n      swap1\n      pop\n        /* \"#utility.yul\":2105:2114   */\n      dup2\n        /* \"#utility.yul\":2099:2103   */\n      dup2\n        /* \"#utility.yul\":2095:2115   */\n      sub\n        /* \"#utility.yul\":2091:2092   */\n      0x00\n        /* \"#utility.yul\":2080:2089   */\n      dup4\n        /* \"#utility.yul\":2076:2093   */\n      add\n        /* \"#utility.yul\":2069:2116   */\n      mstore\n        /* \"#utility.yul\":2133:2241   */\n      tag_70\n        /* \"#utility.yul\":2236:2240   */\n      dup2\n        /* \"#utility.yul\":2227:2233   */\n      dup5\n        /* \"#utility.yul\":2133:2241   */\n      tag_39\n      jump\t// in\n    tag_70:\n        /* \"#utility.yul\":2125:2241   */\n      swap1\n      pop\n        /* \"#utility.yul\":1875:2248   */\n      swap3\n      swap2\n      pop\n      pop\n      jump\t// out\n        /* \"#utility.yul\":2335:2452   */\n    tag_41:\n        /* \"#utility.yul\":2444:2445   */\n      0x00\n        /* \"#utility.yul\":2441:2442   */\n      dup1\n        /* \"#utility.yul\":2434:2446   */\n      revert\n        /* \"#utility.yul\":2581:2658   */\n    tag_43:\n        /* \"#utility.yul\":2618:2625   */\n      0x00\n        /* \"#utility.yul\":2647:2652   */\n      dup2\n        /* \"#utility.yul\":2636:2652   */\n      swap1\n      pop\n        /* \"#utility.yul\":2581:2658   */\n      swap2\n      swap1\n      pop\n      jump\t// out\n        /* \"#utility.yul\":2664:2786   */\n    tag_44:\n        /* \"#utility.yul\":2737:2761   */\n      tag_76\n        /* \"#utility.yul\":2755:2760   */\n      dup2\n        /* \"#utility.yul\":2737:2761   */\n      tag_43\n      jump\t// in\n    tag_76:\n        /* \"#utility.yul\":2730:2735   */\n      dup2\n        /* \"#utility.yul\":2727:2762   */\n      eq\n        /* \"#utility.yul\":2717:2780   */\n      tag_77\n      jumpi\n        /* \"#utility.yul\":2776:2777   */\n      0x00\n        /* \"#utility.yul\":2773:2774   */\n      dup1\n        /* \"#utility.yul\":2766:2778   */\n      revert\n        /* \"#utility.yul\":2717:2780   */\n    tag_77:\n        /* \"#utility.yul\":2664:2786   */\n      pop\n      jump\t// out\n        /* \"#utility.yul\":2792:2931   */\n    tag_45:\n        /* \"#utility.yul\":2838:2843   */\n      0x00\n        /* \"#utility.yul\":2876:2882   */\n      dup2\n        /* \"#utility.yul\":2863:2883   */\n      calldataload\n        /* \"#utility.yul\":2854:2883   */\n      swap1\n      pop\n        /* \"#utility.yul\":2892:2925   */\n      tag_79\n        /* \"#utility.yul\":2919:2924   */\n      dup2\n        /* \"#utility.yul\":2892:2925   */\n      tag_44\n      jump\t// in\n    tag_79:\n        /* \"#utility.yul\":2792:2931   */\n      swap3\n      swap2\n      pop\n      pop\n      jump\t// out\n        /* \"#utility.yul\":2937:3266   */\n    tag_12:\n        /* \"#utility.yul\":2996:3002   */\n      0x00\n        /* \"#utility.yul\":3045:3047   */\n      0x20\n        /* \"#utility.yul\":3033:3042   */\n      dup3\n        /* \"#utility.yul\":3024:3031   */\n      dup5\n        /* \"#utility.yul\":3020:3043   */\n      sub\n        /* \"#utility.yul\":3016:3048   */\n      slt\n        /* \"#utility.yul\":3013:3132   */\n      iszero\n      tag_81\n      jumpi\n        /* \"#utility.yul\":3051:3130   */\n      tag_82\n      tag_41\n      jump\t// in\n    tag_82:\n        /* \"#utility.yul\":3013:3132   */\n    tag_81:\n        /* \"#utility.yul\":3171:3172   */\n      0x00\n        /* \"#utility.yul\":3196:3249   */\n      tag_83\n        /* \"#utility.yul\":3241:3248   */\n      dup5\n        /* \"#utility.yul\":3232:3238   */\n      dup3\n        /* \"#utility.yul\":3221:3230   */\n      dup6\n        /* \"#utility.yul\":3217:3239   */\n      add\n        /* \"#utility.yul\":3196:3249   */\n      tag_45\n      jump\t// in\n    tag_83:\n        /* \"#utility.yul\":3186:3249   */\n      swap2\n      pop\n        /* \"#utility.yul\":3142:3259   */\n      pop\n        /* \"#utility.yul\":2937:3266   */\n      swap3\n      swap2\n      pop\n      pop\n      jump\t// out\n        /* \"#utility.yul\":3272:3390   */\n    tag_46:\n        /* \"#utility.yul\":3359:3383   */\n      tag_85\n        /* \"#utility.yul\":3377:3382   */\n      dup2\n        /* \"#utility.yul\":3359:3383   */\n      tag_35\n      jump\t// in\n    tag_85:\n        /* \"#utility.yul\":3354:3357   */\n      dup3\n        /* \"#utility.yul\":3347:3384   */\n      mstore\n        /* \"#utility.yul\":3272:3390   */\n      pop\n      pop\n      jump\t// out\n        /* \"#utility.yul\":3396:3618   */\n    tag_15:\n        /* \"#utility.yul\":3489:3493   */\n      0x00\n        /* \"#utility.yul\":3527:3529   */\n      0x20\n        /* \"#utility.yul\":3516:3525   */\n      dup3\n        /* \"#utility.yul\":3512:3530   */\n      add\n        /* \"#utility.yul\":3504:3530   */\n      swap1\n      pop\n        /* \"#utility.yul\":3540:3611   */\n      tag_87\n        /* \"#utility.yul\":3608:3609   */\n      0x00\n        /* \"#utility.yul\":3597:3606   */\n      dup4\n        /* \"#utility.yul\":3593:3610   */\n      add\n        /* \"#utility.yul\":3584:3590   */\n      dup5\n        /* \"#utility.yul\":3540:3611   */\n      tag_46\n      jump\t// in\n    tag_87:\n        /* \"#utility.yul\":3396:3618   */\n      swap3\n      swap2\n      pop\n      pop\n      jump\t// out\n        /* \"#utility.yul\":3624:3742   */\n    tag_47:\n        /* \"#utility.yul\":3711:3735   */\n      tag_89\n        /* \"#utility.yul\":3729:3734   */\n      dup2\n        /* \"#utility.yul\":3711:3735   */\n      tag_43\n      jump\t// in\n    tag_89:\n        /* \"#utility.yul\":3706:3709   */\n      dup3\n        /* \"#utility.yul\":3699:3736   */\n      mstore\n        /* \"#utility.yul\":3624:3742   */\n      pop\n      pop\n      jump\t// out\n        /* \"#utility.yul\":3748:4080   */\n    tag_28:\n        /* \"#utility.yul\":3869:3873   */\n      0x00\n        /* \"#utility.yul\":3907:3909   */\n      0x40\n        /* \"#utility.yul\":3896:3905   */\n      dup3\n        /* \"#utility.yul\":3892:3910   */\n      add\n        /* \"#utility.yul\":3884:3910   */\n      swap1\n      pop\n        /* \"#utility.yul\":3920:3991   */\n      tag_91\n        /* \"#utility.yul\":3988:3989   */\n      0x00\n        /* \"#utility.yul\":3977:3986   */\n      dup4\n        /* \"#utility.yul\":3973:3990   */\n      add\n        /* \"#utility.yul\":3964:3970   */\n      dup6\n        /* \"#utility.yul\":3920:3991   */\n      tag_47\n      jump\t// in\n    tag_91:\n        /* \"#utility.yul\":4001:4073   */\n      tag_92\n        /* \"#utility.yul\":4069:4071   */\n      0x20\n        /* \"#utility.yul\":4058:4067   */\n      dup4\n        /* \"#utility.yul\":4054:4072   */\n      add\n        /* \"#utility.yul\":4045:4051   */\n      dup5\n        /* \"#utility.yul\":4001:4073   */\n      tag_46\n      jump\t// in\n    tag_92:\n        /* \"#utility.yul\":3748:4080   */\n      swap4\n      swap3\n      pop\n      pop\n      pop\n      jump\t// out\n    stop\n\n    sub_0: assembly {\n            /* \"Campaign.sol\":392:2523  contract Campaign{... */\n          mstore(0x40, 0x80)\n            /* \"Campaign.sol\":908:1046  constructor(uint minimum, address creator){... */\n          callvalue\n          dup1\n          iszero\n          tag_1\n          jumpi\n          0x00\n          dup1\n          revert\n        tag_1:\n          pop\n          mload(0x40)\n          sub(codesize, bytecodeSize)\n          dup1\n          bytecodeSize\n          dup4\n          codecopy\n          dup2\n          dup2\n          add\n          0x40\n          mstore\n          dup2\n          add\n          swap1\n          tag_2\n          swap2\n          swap1\n          tag_3\n          jump\t// in\n        tag_2:\n            /* \"Campaign.sol\":970:977  creator */\n          dup1\n            /* \"Campaign.sol\":960:967  manager */\n          0x00\n          dup1\n            /* \"Campaign.sol\":960:977  manager = creator */\n          0x0100\n          exp\n          dup2\n          sload\n          dup2\n          0xffffffffffffffffffffffffffffffffffffffff\n          mul\n          not\n          and\n          swap1\n          dup4\n          0xffffffffffffffffffffffffffffffffffffffff\n          and\n          mul\n          or\n          swap1\n          sstore\n          pop\n            /* \"Campaign.sol\":1010:1017  minimum */\n          dup2\n            /* \"Campaign.sol\":988:1007  minimumContribution */\n          0x01\n            /* \"Campaign.sol\":988:1017  minimumContribution = minimum */\n          dup2\n          swap1\n          sstore\n          pop\n            /* \"Campaign.sol\":1037:1038  0 */\n          0x00\n            /* \"Campaign.sol\":1028:1034  numReq */\n          0x04\n            /* \"Campaign.sol\":1028:1038  numReq = 0 */\n          dup2\n          swap1\n          sstore\n          pop\n            /* \"Campaign.sol\":908:1046  constructor(uint minimum, address creator){... */\n          pop\n          pop\n            /* \"Campaign.sol\":392:2523  contract Campaign{... */\n          jump(tag_6)\n            /* \"#utility.yul\":88:205   */\n        tag_8:\n            /* \"#utility.yul\":197:198   */\n          0x00\n            /* \"#utility.yul\":194:195   */\n          dup1\n            /* \"#utility.yul\":187:199   */\n          revert\n            /* \"#utility.yul\":334:411   */\n        tag_10:\n            /* \"#utility.yul\":371:378   */\n          0x00\n            /* \"#utility.yul\":400:405   */\n          dup2\n            /* \"#utility.yul\":389:405   */\n          swap1\n          pop\n            /* \"#utility.yul\":334:411   */\n          swap2\n          swap1\n          pop\n          jump\t// out\n            /* \"#utility.yul\":417:539   */\n        tag_11:\n            /* \"#utility.yul\":490:514   */\n          tag_23\n            /* \"#utility.yul\":508:513   */\n          dup2\n            /* \"#utility.yul\":490:514   */\n          tag_10\n          jump\t// in\n        tag_23:\n            /* \"#utility.yul\":483:488   */\n          dup2\n            /* \"#utility.yul\":480:515   */\n          eq\n            /* \"#utility.yul\":470:533   */\n          tag_24\n          jumpi\n            /* \"#utility.yul\":529:530   */\n          0x00\n            /* \"#utility.yul\":526:527   */\n          dup1\n            /* \"#utility.yul\":519:531   */\n          revert\n            /* \"#utility.yul\":470:533   */\n        tag_24:\n            /* \"#utility.yul\":417:539   */\n          pop\n          jump\t// out\n            /* \"#utility.yul\":545:688   */\n        tag_12:\n            /* \"#utility.yul\":602:607   */\n          0x00\n            /* \"#utility.yul\":633:639   */\n          dup2\n            /* \"#utility.yul\":627:640   */\n          mload\n            /* \"#utility.yul\":618:640   */\n          swap1\n          pop\n            /* \"#utility.yul\":649:682   */\n          tag_26\n            /* \"#utility.yul\":676:681   */\n          dup2\n            /* \"#utility.yul\":649:682   */\n          tag_11\n          jump\t// in\n        tag_26:\n            /* \"#utility.yul\":545:688   */\n          swap3\n          swap2\n          pop\n          pop\n          jump\t// out\n            /* \"#utility.yul\":694:820   */\n        tag_13:\n            /* \"#utility.yul\":731:738   */\n          0x00\n            /* \"#utility.yul\":771:813   */\n          0xffffffffffffffffffffffffffffffffffffffff\n            /* \"#utility.yul\":764:769   */\n          dup3\n            /* \"#utility.yul\":760:814   */\n          and\n            /* \"#utility.yul\":749:814   */\n          swap1\n          pop\n            /* \"#utility.yul\":694:820   */\n          swap2\n          swap1\n          pop\n          jump\t// out\n            /* \"#utility.yul\":826:922   */\n        tag_14:\n            /* \"#utility.yul\":863:870   */\n          0x00\n            /* \"#utility.yul\":892:916   */\n          tag_29\n            /* \"#utility.yul\":910:915   */\n          dup3\n            /* \"#utility.yul\":892:916   */\n          tag_13\n          jump\t// in\n        tag_29:\n            /* \"#utility.yul\":881:916   */\n          swap1\n          pop\n            /* \"#utility.yul\":826:922   */\n          swap2\n          swap1\n          pop\n          jump\t// out\n            /* \"#utility.yul\":928:1050   */\n        tag_15:\n            /* \"#utility.yul\":1001:1025   */\n          tag_31\n            /* \"#utility.yul\":1019:1024   */\n          dup2\n            /* \"#utility.yul\":1001:1025   */\n          tag_14\n          jump\t// in\n        tag_31:\n            /* \"#utility.yul\":994:999   */\n          dup2\n            /* \"#utility.yul\":991:1026   */\n          eq\n            /* \"#utility.yul\":981:1044   */\n          tag_32\n          jumpi\n            /* \"#utility.yul\":1040:1041   */\n          0x00\n            /* \"#utility.yul\":1037:1038   */\n          dup1\n            /* \"#utility.yul\":1030:1042   */\n          revert\n            /* \"#utility.yul\":981:1044   */\n        tag_32:\n            /* \"#utility.yul\":928:1050   */\n          pop\n          jump\t// out\n            /* \"#utility.yul\":1056:1199   */\n        tag_16:\n            /* \"#utility.yul\":1113:1118   */\n          0x00\n            /* \"#utility.yul\":1144:1150   */\n          dup2\n            /* \"#utility.yul\":1138:1151   */\n          mload\n            /* \"#utility.yul\":1129:1151   */\n          swap1\n          pop\n            /* \"#utility.yul\":1160:1193   */\n          tag_34\n            /* \"#utility.yul\":1187:1192   */\n          dup2\n            /* \"#utility.yul\":1160:1193   */\n          tag_15\n          jump\t// in\n        tag_34:\n            /* \"#utility.yul\":1056:1199   */\n          swap3\n          swap2\n          pop\n          pop\n          jump\t// out\n            /* \"#utility.yul\":1205:1712   */\n        tag_3:\n            /* \"#utility.yul\":1284:1290   */\n          0x00\n            /* \"#utility.yul\":1292:1298   */\n          dup1\n            /* \"#utility.yul\":1341:1343   */\n          0x40\n            /* \"#utility.yul\":1329:1338   */\n          dup4\n            /* \"#utility.yul\":1320:1327   */\n          dup6\n            /* \"#utility.yul\":1316:1339   */\n          sub\n            /* \"#utility.yul\":1312:1344   */\n          slt\n            /* \"#utility.yul\":1309:1428   */\n          iszero\n          tag_36\n          jumpi\n            /* \"#utility.yul\":1347:1426   */\n          tag_37\n          tag_8\n          jump\t// in\n        tag_37:\n            /* \"#utility.yul\":1309:1428   */\n        tag_36:\n            /* \"#utility.yul\":1467:1468   */\n          0x00\n            /* \"#utility.yul\":1492:1556   */\n          tag_38\n            /* \"#utility.yul\":1548:1555   */\n          dup6\n            /* \"#utility.yul\":1539:1545   */\n          dup3\n            /* \"#utility.yul\":1528:1537   */\n          dup7\n            /* \"#utility.yul\":1524:1546   */\n          add\n            /* \"#utility.yul\":1492:1556   */\n          tag_12\n          jump\t// in\n        tag_38:\n            /* \"#utility.yul\":1482:1556   */\n          swap3\n          pop\n            /* \"#utility.yul\":1438:1566   */\n          pop\n            /* \"#utility.yul\":1605:1607   */\n          0x20\n            /* \"#utility.yul\":1631:1695   */\n          tag_39\n            /* \"#utility.yul\":1687:1694   */\n          dup6\n            /* \"#utility.yul\":1678:1684   */\n          dup3\n            /* \"#utility.yul\":1667:1676   */\n          dup7\n            /* \"#utility.yul\":1663:1685   */\n          add\n            /* \"#utility.yul\":1631:1695   */\n          tag_16\n          jump\t// in\n        tag_39:\n            /* \"#utility.yul\":1621:1695   */\n          swap2\n          pop\n            /* \"#utility.yul\":1576:1705   */\n          pop\n            /* \"#utility.yul\":1205:1712   */\n          swap3\n          pop\n          swap3\n          swap1\n          pop\n          jump\t// out\n            /* \"Campaign.sol\":392:2523  contract Campaign{... */\n        tag_6:\n          dataSize(sub_0)\n          dup1\n          dataOffset(sub_0)\n          0x00\n          codecopy\n          0x00\n          return\n        stop\n\n        sub_0: assembly {\n                /* \"Campaign.sol\":392:2523  contract Campaign{... */\n              mstore(0x40, 0x80)\n              jumpi(tag_1, lt(calldatasize, 0x04))\n              shr(0xe0, calldataload(0x00))\n              dup1\n              0x8a9cfd55\n              gt\n              tag_12\n              jumpi\n              dup1\n              0x8a9cfd55\n              eq\n              tag_7\n              jumpi\n              dup1\n              0x937e09b1\n              eq\n              tag_8\n              jumpi\n              dup1\n              0xd7bb99ba\n              eq\n              tag_9\n              jumpi\n              dup1\n              0xd7d1bbdb\n              eq\n              tag_10\n              jumpi\n              dup1\n              0xfbbf93a0\n              eq\n              tag_11\n              jumpi\n              jump(tag_1)\n            tag_12:\n              dup1\n              0x03441006\n              eq\n              tag_2\n              jumpi\n              dup1\n              0x0a144391\n              eq\n              tag_3\n              jumpi\n              dup1\n              0x3fad1834\n              eq\n              tag_4\n              jumpi\n              dup1\n              0x481c6a75\n              eq\n              tag_5\n              jumpi\n              dup1\n              0x81d12c58\n              eq\n              tag_6\n              jumpi\n            tag_1:\n              0x00\n              dup1\n              revert\n                /* \"Campaign.sol\":1875:2186  function finalizeRequest(uint index) public restricted{... */\n            tag_2:\n              callvalue\n              dup1\n              iszero\n              tag_13\n              jumpi\n              0x00\n              dup1\n              revert\n            tag_13:\n              pop\n              tag_14\n              0x04\n              dup1\n              calldatasize\n              sub\n              dup2\n              add\n              swap1\n              tag_15\n              swap2\n              swap1\n              tag_16\n              jump\t// in\n            tag_15:\n              tag_17\n              jump\t// in\n            tag_14:\n              stop\n                /* \"Campaign.sol\":684:725  mapping(address => bool) public approvers */\n            tag_3:\n              callvalue\n              dup1\n              iszero\n              tag_18\n              jumpi\n              0x00\n              dup1\n              revert\n            tag_18:\n              pop\n              tag_19\n              0x04\n              dup1\n              calldatasize\n              sub\n              dup2\n              add\n              swap1\n              tag_20\n              swap2\n              swap1\n              tag_21\n              jump\t// in\n            tag_20:\n              tag_22\n              jump\t// in\n            tag_19:\n              mload(0x40)\n              tag_23\n              swap2\n              swap1\n              tag_24\n              jump\t// in\n            tag_23:\n              mload(0x40)\n              dup1\n              swap2\n              sub\n              swap1\n              return\n                /* \"Campaign.sol\":2438:2521  function getRequestCount() public view returns(uint){... */\n            tag_4:\n              callvalue\n              dup1\n              iszero\n              tag_25\n              jumpi\n              0x00\n              dup1\n              revert\n            tag_25:\n              pop\n              tag_26\n              tag_27\n              jump\t// in\n            tag_26:\n              mload(0x40)\n              tag_28\n              swap2\n              swap1\n              tag_29\n              jump\t// in\n            tag_28:\n              mload(0x40)\n              dup1\n              swap2\n              sub\n              swap1\n              return\n                /* \"Campaign.sol\":617:639  address public manager */\n            tag_5:\n              callvalue\n              dup1\n              iszero\n              tag_30\n              jumpi\n              0x00\n              dup1\n              revert\n            tag_30:\n              pop\n              tag_31\n              tag_32\n              jump\t// in\n            tag_31:\n              mload(0x40)\n              tag_33\n              swap2\n              swap1\n              tag_34\n              jump\t// in\n            tag_33:\n              mload(0x40)\n              dup1\n              swap2\n              sub\n              swap1\n              return\n                /* \"Campaign.sol\":732:772  mapping(uint => Request) public requests */\n            tag_6:\n              callvalue\n              dup1\n              iszero\n              tag_35\n              jumpi\n              0x00\n              dup1\n              revert\n            tag_35:\n              pop\n              tag_36\n              0x04\n              dup1\n              calldatasize\n              sub\n              dup2\n              add\n              swap1\n              tag_37\n              swap2\n              swap1\n              tag_16\n              jump\t// in\n            tag_37:\n              tag_38\n              jump\t// in\n            tag_36:\n              mload(0x40)\n              tag_39\n              swap6\n              swap5\n              swap4\n              swap3\n              swap2\n              swap1\n              tag_40\n              jump\t// in\n            tag_39:\n              mload(0x40)\n              dup1\n              swap2\n              sub\n              swap1\n              return\n                /* \"Campaign.sol\":1219:1588  function createRequest(string memory description, uint _value, address recipient) public restricted {... */\n            tag_7:\n              callvalue\n              dup1\n              iszero\n              tag_41\n              jumpi\n              0x00\n              dup1\n              revert\n            tag_41:\n              pop\n              tag_42\n              0x04\n              dup1\n              calldatasize\n              sub\n              dup2\n              add\n              swap1\n              tag_43\n              swap2\n              swap1\n              tag_44\n              jump\t// in\n            tag_43:\n              tag_45\n              jump\t// in\n            tag_42:\n              stop\n                /* \"Campaign.sol\":646:677  uint public minimumContribution */\n            tag_8:\n              callvalue\n              dup1\n              iszero\n              tag_46\n              jumpi\n              0x00\n              dup1\n              revert\n            tag_46:\n              pop\n              tag_47\n              tag_48\n              jump\t// in\n            tag_47:\n              mload(0x40)\n              tag_49\n              swap2\n              swap1\n              tag_29\n              jump\t// in\n            tag_49:\n              mload(0x40)\n              dup1\n              swap2\n              sub\n              swap1\n              return\n                /* \"Campaign.sol\":1052:1213  function contribute() public payable{... */\n            tag_9:\n              tag_50\n              tag_51\n              jump\t// in\n            tag_50:\n              stop\n                /* \"Campaign.sol\":1594:1869  function approveRequest(uint index) public{... */\n            tag_10:\n              callvalue\n              dup1\n              iszero\n              tag_52\n              jumpi\n              0x00\n              dup1\n              revert\n            tag_52:\n              pop\n              tag_53\n              0x04\n              dup1\n              calldatasize\n              sub\n              dup2\n              add\n              swap1\n              tag_54\n              swap2\n              swap1\n              tag_16\n              jump\t// in\n            tag_54:\n              tag_55\n              jump\t// in\n            tag_53:\n              stop\n                /* \"Campaign.sol\":2192:2432  function getDetails() public view returns(uint, uint, uint, uint, address){... */\n            tag_11:\n              callvalue\n              dup1\n              iszero\n              tag_56\n              jumpi\n              0x00\n              dup1\n              revert\n            tag_56:\n              pop\n              tag_57\n              tag_58\n              jump\t// in\n            tag_57:\n              mload(0x40)\n              tag_59\n              swap6\n              swap5\n              swap4\n              swap3\n              swap2\n              swap1\n              tag_60\n              jump\t// in\n            tag_59:\n              mload(0x40)\n              dup1\n              swap2\n              sub\n              swap1\n              return\n                /* \"Campaign.sol\":1875:2186  function finalizeRequest(uint index) public restricted{... */\n            tag_17:\n                /* \"Campaign.sol\":875:882  manager */\n              0x00\n              dup1\n              sload\n              swap1\n              0x0100\n              exp\n              swap1\n              div\n              0xffffffffffffffffffffffffffffffffffffffff\n              and\n                /* \"Campaign.sol\":861:882  msg.sender == manager */\n              0xffffffffffffffffffffffffffffffffffffffff\n              and\n                /* \"Campaign.sol\":861:871  msg.sender */\n              caller\n                /* \"Campaign.sol\":861:882  msg.sender == manager */\n              0xffffffffffffffffffffffffffffffffffffffff\n              and\n              eq\n                /* \"Campaign.sol\":853:883  require(msg.sender == manager) */\n              tag_62\n              jumpi\n              0x00\n              dup1\n              revert\n            tag_62:\n                /* \"Campaign.sol\":1939:1962  Request storage request */\n              0x00\n                /* \"Campaign.sol\":1965:1973  requests */\n              0x03\n                /* \"Campaign.sol\":1965:1980  requests[index] */\n              0x00\n                /* \"Campaign.sol\":1974:1979  index */\n              dup4\n                /* \"Campaign.sol\":1965:1980  requests[index] */\n              dup2\n              mstore\n              0x20\n              add\n              swap1\n              dup2\n              mstore\n              0x20\n              add\n              0x00\n              keccak256\n                /* \"Campaign.sol\":1939:1980  Request storage request = requests[index] */\n              swap1\n              pop\n                /* \"Campaign.sol\":2001:2008  request */\n              dup1\n                /* \"Campaign.sol\":2001:2017  request.complete */\n              0x02\n              add\n              0x14\n              swap1\n              sload\n              swap1\n              0x0100\n              exp\n              swap1\n              div\n              0xff\n              and\n                /* \"Campaign.sol\":2000:2017  !request.complete */\n              iszero\n                /* \"Campaign.sol\":1992:2018  require(!request.complete) */\n              tag_64\n              jumpi\n              0x00\n              dup1\n              revert\n            tag_64:\n                /* \"Campaign.sol\":2079:2080  2 */\n              0x02\n                /* \"Campaign.sol\":2062:2076  approversCount */\n              sload(0x05)\n                /* \"Campaign.sol\":2062:2080  approversCount / 2 */\n              tag_65\n              swap2\n              swap1\n              tag_66\n              jump\t// in\n            tag_65:\n                /* \"Campaign.sol\":2037:2044  request */\n              dup2\n                /* \"Campaign.sol\":2037:2058  request.approvalCount */\n              0x03\n              add\n              sload\n                /* \"Campaign.sol\":2037:2081  request.approvalCount > (approversCount / 2) */\n              gt\n                /* \"Campaign.sol\":2029:2082  require(request.approvalCount > (approversCount / 2)) */\n              tag_67\n              jumpi\n              0x00\n              dup1\n              revert\n            tag_67:\n                /* \"Campaign.sol\":2102:2109  request */\n              dup1\n                /* \"Campaign.sol\":2102:2119  request.recipient */\n              0x02\n              add\n              0x00\n              swap1\n              sload\n              swap1\n              0x0100\n              exp\n              swap1\n              div\n              0xffffffffffffffffffffffffffffffffffffffff\n              and\n                /* \"Campaign.sol\":2094:2129  payable(request.recipient).transfer */\n              0xffffffffffffffffffffffffffffffffffffffff\n              and\n                /* \"Campaign.sol\":2094:2144  payable(request.recipient).transfer(request.value) */\n              0x08fc\n                /* \"Campaign.sol\":2130:2137  request */\n              dup3\n                /* \"Campaign.sol\":2130:2143  request.value */\n              0x01\n              add\n              sload\n                /* \"Campaign.sol\":2094:2144  payable(request.recipient).transfer(request.value) */\n              swap1\n              dup2\n              iszero\n              mul\n              swap1\n              mload(0x40)\n              0x00\n              mload(0x40)\n              dup1\n              dup4\n              sub\n              dup2\n              dup6\n              dup9\n              dup9\n              call\n              swap4\n              pop\n              pop\n              pop\n              pop\n              iszero\n              dup1\n              iszero\n              tag_69\n              jumpi\n              returndatasize\n              0x00\n              dup1\n              returndatacopy\n              revert(0x00, returndatasize)\n            tag_69:\n              pop\n                /* \"Campaign.sol\":2174:2178  true */\n              0x01\n                /* \"Campaign.sol\":2155:2162  request */\n              dup2\n                /* \"Campaign.sol\":2155:2171  request.complete */\n              0x02\n              add\n              0x14\n                /* \"Campaign.sol\":2155:2178  request.complete = true */\n              0x0100\n              exp\n              dup2\n              sload\n              dup2\n              0xff\n              mul\n              not\n              and\n              swap1\n              dup4\n              iszero\n              iszero\n              mul\n              or\n              swap1\n              sstore\n              pop\n                /* \"Campaign.sol\":1929:2186  {... */\n              pop\n                /* \"Campaign.sol\":1875:2186  function finalizeRequest(uint index) public restricted{... */\n              pop\n              jump\t// out\n                /* \"Campaign.sol\":684:725  mapping(address => bool) public approvers */\n            tag_22:\n              mstore(0x20, 0x02)\n              dup1\n              0x00\n              mstore\n              keccak256(0x00, 0x40)\n              0x00\n              swap2\n              pop\n              sload\n              swap1\n              0x0100\n              exp\n              swap1\n              div\n              0xff\n              and\n              dup2\n              jump\t// out\n                /* \"Campaign.sol\":2438:2521  function getRequestCount() public view returns(uint){... */\n            tag_27:\n                /* \"Campaign.sol\":2485:2489  uint */\n              0x00\n                /* \"Campaign.sol\":2507:2513  numReq */\n              sload(0x04)\n                /* \"Campaign.sol\":2500:2513  return numReq */\n              swap1\n              pop\n                /* \"Campaign.sol\":2438:2521  function getRequestCount() public view returns(uint){... */\n              swap1\n              jump\t// out\n                /* \"Campaign.sol\":617:639  address public manager */\n            tag_32:\n              0x00\n              dup1\n              sload\n              swap1\n              0x0100\n              exp\n              swap1\n              div\n              0xffffffffffffffffffffffffffffffffffffffff\n              and\n              dup2\n              jump\t// out\n                /* \"Campaign.sol\":732:772  mapping(uint => Request) public requests */\n            tag_38:\n              mstore(0x20, 0x03)\n              dup1\n              0x00\n              mstore\n              keccak256(0x00, 0x40)\n              0x00\n              swap2\n              pop\n              swap1\n              pop\n              dup1\n              0x00\n              add\n              dup1\n              sload\n              tag_71\n              swap1\n              tag_72\n              jump\t// in\n            tag_71:\n              dup1\n              0x1f\n              add\n              0x20\n              dup1\n              swap2\n              div\n              mul\n              0x20\n              add\n              mload(0x40)\n              swap1\n              dup2\n              add\n              0x40\n              mstore\n              dup1\n              swap3\n              swap2\n              swap1\n              dup2\n              dup2\n              mstore\n              0x20\n              add\n              dup3\n              dup1\n              sload\n              tag_73\n              swap1\n              tag_72\n              jump\t// in\n            tag_73:\n              dup1\n              iszero\n              tag_74\n              jumpi\n              dup1\n              0x1f\n              lt\n              tag_75\n              jumpi\n              0x0100\n              dup1\n              dup4\n              sload\n              div\n              mul\n              dup4\n              mstore\n              swap2\n              0x20\n              add\n              swap2\n              jump(tag_74)\n            tag_75:\n              dup3\n              add\n              swap2\n              swap1\n              0x00\n              mstore\n              keccak256(0x00, 0x20)\n              swap1\n            tag_76:\n              dup2\n              sload\n              dup2\n              mstore\n              swap1\n              0x01\n              add\n              swap1\n              0x20\n              add\n              dup1\n              dup4\n              gt\n              tag_76\n              jumpi\n              dup3\n              swap1\n              sub\n              0x1f\n              and\n              dup3\n              add\n              swap2\n            tag_74:\n              pop\n              pop\n              pop\n              pop\n              pop\n              swap1\n              dup1\n              0x01\n              add\n              sload\n              swap1\n              dup1\n              0x02\n              add\n              0x00\n              swap1\n              sload\n              swap1\n              0x0100\n              exp\n              swap1\n              div\n              0xffffffffffffffffffffffffffffffffffffffff\n              and\n              swap1\n              dup1\n              0x02\n              add\n              0x14\n              swap1\n              sload\n              swap1\n              0x0100\n              exp\n              swap1\n              div\n              0xff\n              and\n              swap1\n              dup1\n              0x03\n              add\n              sload\n              swap1\n              pop\n              dup6\n              jump\t// out\n                /* \"Campaign.sol\":1219:1588  function createRequest(string memory description, uint _value, address recipient) public restricted {... */\n            tag_45:\n                /* \"Campaign.sol\":875:882  manager */\n              0x00\n              dup1\n              sload\n              swap1\n              0x0100\n              exp\n              swap1\n              div\n              0xffffffffffffffffffffffffffffffffffffffff\n              and\n                /* \"Campaign.sol\":861:882  msg.sender == manager */\n              0xffffffffffffffffffffffffffffffffffffffff\n              and\n                /* \"Campaign.sol\":861:871  msg.sender */\n              caller\n                /* \"Campaign.sol\":861:882  msg.sender == manager */\n              0xffffffffffffffffffffffffffffffffffffffff\n              and\n              eq\n                /* \"Campaign.sol\":853:883  require(msg.sender == manager) */\n              tag_78\n              jumpi\n              0x00\n              dup1\n              revert\n            tag_78:\n                /* \"Campaign.sol\":1330:1356  Request storage newRequest */\n              0x00\n                /* \"Campaign.sol\":1359:1367  requests */\n              0x03\n                /* \"Campaign.sol\":1359:1377  requests[numReq++] */\n              0x00\n                /* \"Campaign.sol\":1368:1374  numReq */\n              0x04\n              0x00\n                /* \"Campaign.sol\":1368:1376  numReq++ */\n              dup2\n              sload\n              dup1\n              swap3\n              swap2\n              swap1\n              tag_80\n              swap1\n              tag_81\n              jump\t// in\n            tag_80:\n              swap2\n              swap1\n              pop\n              sstore\n                /* \"Campaign.sol\":1359:1377  requests[numReq++] */\n              dup2\n              mstore\n              0x20\n              add\n              swap1\n              dup2\n              mstore\n              0x20\n              add\n              0x00\n              keccak256\n                /* \"Campaign.sol\":1330:1377  Request storage newRequest = requests[numReq++] */\n              swap1\n              pop\n                /* \"Campaign.sol\":1413:1424  description */\n              dup4\n                /* \"Campaign.sol\":1388:1398  newRequest */\n              dup2\n                /* \"Campaign.sol\":1388:1410  newRequest.description */\n              0x00\n              add\n                /* \"Campaign.sol\":1388:1424  newRequest.description = description */\n              swap1\n              dup1\n              mload\n              swap1\n              0x20\n              add\n              swap1\n              tag_82\n              swap3\n              swap2\n              swap1\n              tag_83\n              jump\t// in\n            tag_82:\n              pop\n                /* \"Campaign.sol\":1454:1460  _value */\n              dup3\n                /* \"Campaign.sol\":1435:1445  newRequest */\n              dup2\n                /* \"Campaign.sol\":1435:1451  newRequest.value */\n              0x01\n              add\n                /* \"Campaign.sol\":1435:1460  newRequest.value = _value */\n              dup2\n              swap1\n              sstore\n              pop\n                /* \"Campaign.sol\":1494:1503  recipient */\n              dup2\n                /* \"Campaign.sol\":1471:1481  newRequest */\n              dup2\n                /* \"Campaign.sol\":1471:1491  newRequest.recipient */\n              0x02\n              add\n              0x00\n                /* \"Campaign.sol\":1471:1503  newRequest.recipient = recipient */\n              0x0100\n              exp\n              dup2\n              sload\n              dup2\n              0xffffffffffffffffffffffffffffffffffffffff\n              mul\n              not\n              and\n              swap1\n              dup4\n              0xffffffffffffffffffffffffffffffffffffffff\n              and\n              mul\n              or\n              swap1\n              sstore\n              pop\n                /* \"Campaign.sol\":1536:1541  false */\n              0x00\n                /* \"Campaign.sol\":1514:1524  newRequest */\n              dup2\n                /* \"Campaign.sol\":1514:1533  newRequest.complete */\n              0x02\n              add\n              0x14\n                /* \"Campaign.sol\":1514:1541  newRequest.complete = false */\n              0x0100\n              exp\n              dup2\n              sload\n              dup2\n              0xff\n              mul\n              not\n              and\n              swap1\n              dup4\n              iszero\n              iszero\n              mul\n              or\n              swap1\n              sstore\n              pop\n                /* \"Campaign.sol\":1579:1580  0 */\n              0x00\n                /* \"Campaign.sol\":1552:1562  newRequest */\n              dup2\n                /* \"Campaign.sol\":1552:1576  newRequest.approvalCount */\n              0x03\n              add\n                /* \"Campaign.sol\":1552:1580  newRequest.approvalCount = 0 */\n              dup2\n              swap1\n              sstore\n              pop\n                /* \"Campaign.sol\":1319:1588  {... */\n              pop\n                /* \"Campaign.sol\":1219:1588  function createRequest(string memory description, uint _value, address recipient) public restricted {... */\n              pop\n              pop\n              pop\n              jump\t// out\n                /* \"Campaign.sol\":646:677  uint public minimumContribution */\n            tag_48:\n              sload(0x01)\n              dup2\n              jump\t// out\n                /* \"Campaign.sol\":1052:1213  function contribute() public payable{... */\n            tag_51:\n                /* \"Campaign.sol\":1119:1138  minimumContribution */\n              sload(0x01)\n                /* \"Campaign.sol\":1106:1115  msg.value */\n              callvalue\n                /* \"Campaign.sol\":1106:1138  msg.value >= minimumContribution */\n              lt\n              iszero\n                /* \"Campaign.sol\":1098:1139  require(msg.value >= minimumContribution) */\n              tag_85\n              jumpi\n              0x00\n              dup1\n              revert\n            tag_85:\n                /* \"Campaign.sol\":1150:1164  approversCount */\n              0x05\n              0x00\n                /* \"Campaign.sol\":1150:1166  approversCount++ */\n              dup2\n              sload\n              dup1\n              swap3\n              swap2\n              swap1\n              tag_86\n              swap1\n              tag_81\n              jump\t// in\n            tag_86:\n              swap2\n              swap1\n              pop\n              sstore\n              pop\n                /* \"Campaign.sol\":1201:1205  true */\n              0x01\n                /* \"Campaign.sol\":1177:1186  approvers */\n              0x02\n                /* \"Campaign.sol\":1177:1198  approvers[msg.sender] */\n              0x00\n                /* \"Campaign.sol\":1187:1197  msg.sender */\n              caller\n                /* \"Campaign.sol\":1177:1198  approvers[msg.sender] */\n              0xffffffffffffffffffffffffffffffffffffffff\n              and\n              0xffffffffffffffffffffffffffffffffffffffff\n              and\n              dup2\n              mstore\n              0x20\n              add\n              swap1\n              dup2\n              mstore\n              0x20\n              add\n              0x00\n              keccak256\n              0x00\n                /* \"Campaign.sol\":1177:1205  approvers[msg.sender] = true */\n              0x0100\n              exp\n              dup2\n              sload\n              dup2\n              0xff\n              mul\n              not\n              and\n              swap1\n              dup4\n              iszero\n              iszero\n              mul\n              or\n              swap1\n              sstore\n              pop\n                /* \"Campaign.sol\":1052:1213  function contribute() public payable{... */\n              jump\t// out\n                /* \"Campaign.sol\":1594:1869  function approveRequest(uint index) public{... */\n            tag_55:\n                /* \"Campaign.sol\":1646:1669  Request storage request */\n              0x00\n                /* \"Campaign.sol\":1672:1680  requests */\n              0x03\n                /* \"Campaign.sol\":1672:1687  requests[index] */\n              0x00\n                /* \"Campaign.sol\":1681:1686  index */\n              dup4\n                /* \"Campaign.sol\":1672:1687  requests[index] */\n              dup2\n              mstore\n              0x20\n              add\n              swap1\n              dup2\n              mstore\n              0x20\n              add\n              0x00\n              keccak256\n                /* \"Campaign.sol\":1646:1687  Request storage request = requests[index] */\n              swap1\n              pop\n                /* \"Campaign.sol\":1707:1716  approvers */\n              0x02\n                /* \"Campaign.sol\":1707:1728  approvers[msg.sender] */\n              0x00\n                /* \"Campaign.sol\":1717:1727  msg.sender */\n              caller\n                /* \"Campaign.sol\":1707:1728  approvers[msg.sender] */\n              0xffffffffffffffffffffffffffffffffffffffff\n              and\n              0xffffffffffffffffffffffffffffffffffffffff\n              and\n              dup2\n              mstore\n              0x20\n              add\n              swap1\n              dup2\n              mstore\n              0x20\n              add\n              0x00\n              keccak256\n              0x00\n              swap1\n              sload\n              swap1\n              0x0100\n              exp\n              swap1\n              div\n              0xff\n              and\n                /* \"Campaign.sol\":1699:1729  require(approvers[msg.sender]) */\n              tag_88\n              jumpi\n              0x00\n              dup1\n              revert\n            tag_88:\n                /* \"Campaign.sol\":1749:1756  request */\n              dup1\n                /* \"Campaign.sol\":1749:1766  request.approvals */\n              0x04\n              add\n                /* \"Campaign.sol\":1749:1778  request.approvals[msg.sender] */\n              0x00\n                /* \"Campaign.sol\":1767:1777  msg.sender */\n              caller\n                /* \"Campaign.sol\":1749:1778  request.approvals[msg.sender] */\n              0xffffffffffffffffffffffffffffffffffffffff\n              and\n              0xffffffffffffffffffffffffffffffffffffffff\n              and\n              dup2\n              mstore\n              0x20\n              add\n              swap1\n              dup2\n              mstore\n              0x20\n              add\n              0x00\n              keccak256\n              0x00\n              swap1\n              sload\n              swap1\n              0x0100\n              exp\n              swap1\n              div\n              0xff\n              and\n                /* \"Campaign.sol\":1748:1778  !request.approvals[msg.sender] */\n              iszero\n                /* \"Campaign.sol\":1740:1779  require(!request.approvals[msg.sender]) */\n              tag_89\n              jumpi\n              0x00\n              dup1\n              revert\n            tag_89:\n                /* \"Campaign.sol\":1791:1798  request */\n              dup1\n                /* \"Campaign.sol\":1791:1812  request.approvalCount */\n              0x03\n              add\n              0x00\n                /* \"Campaign.sol\":1791:1814  request.approvalCount++ */\n              dup2\n              sload\n              dup1\n              swap3\n              swap2\n              swap1\n              tag_90\n              swap1\n              tag_81\n              jump\t// in\n            tag_90:\n              swap2\n              swap1\n              pop\n              sstore\n              pop\n                /* \"Campaign.sol\":1857:1861  true */\n              0x01\n                /* \"Campaign.sol\":1825:1832  request */\n              dup2\n                /* \"Campaign.sol\":1825:1842  request.approvals */\n              0x04\n              add\n                /* \"Campaign.sol\":1825:1854  request.approvals[msg.sender] */\n              0x00\n                /* \"Campaign.sol\":1843:1853  msg.sender */\n              caller\n                /* \"Campaign.sol\":1825:1854  request.approvals[msg.sender] */\n              0xffffffffffffffffffffffffffffffffffffffff\n              and\n              0xffffffffffffffffffffffffffffffffffffffff\n              and\n              dup2\n              mstore\n              0x20\n              add\n              swap1\n              dup2\n              mstore\n              0x20\n              add\n              0x00\n              keccak256\n              0x00\n                /* \"Campaign.sol\":1825:1861  request.approvals[msg.sender] = true */\n              0x0100\n              exp\n              dup2\n              sload\n              dup2\n              0xff\n              mul\n              not\n              and\n              swap1\n              dup4\n              iszero\n              iszero\n              mul\n              or\n              swap1\n              sstore\n              pop\n                /* \"Campaign.sol\":1636:1869  {... */\n              pop\n                /* \"Campaign.sol\":1594:1869  function approveRequest(uint index) public{... */\n              pop\n              jump\t// out\n                /* \"Campaign.sol\":2192:2432  function getDetails() public view returns(uint, uint, uint, uint, address){... */\n            tag_58:\n                /* \"Campaign.sol\":2234:2238  uint */\n              0x00\n                /* \"Campaign.sol\":2240:2244  uint */\n              dup1\n                /* \"Campaign.sol\":2246:2250  uint */\n              0x00\n                /* \"Campaign.sol\":2252:2256  uint */\n              dup1\n                /* \"Campaign.sol\":2258:2265  address */\n              0x00\n                /* \"Campaign.sol\":2295:2314  minimumContribution */\n              sload(0x01)\n                /* \"Campaign.sol\":2327:2348  address(this).balance */\n              selfbalance\n                /* \"Campaign.sol\":2362:2368  numReq */\n              sload(0x04)\n                /* \"Campaign.sol\":2381:2395  approversCount */\n              sload(0x05)\n                /* \"Campaign.sol\":2408:2415  manager */\n              0x00\n              dup1\n              sload\n              swap1\n              0x0100\n              exp\n              swap1\n              div\n              0xffffffffffffffffffffffffffffffffffffffff\n              and\n                /* \"Campaign.sol\":2275:2425  return (... */\n              swap5\n              pop\n              swap5\n              pop\n              swap5\n              pop\n              swap5\n              pop\n              swap5\n              pop\n                /* \"Campaign.sol\":2192:2432  function getDetails() public view returns(uint, uint, uint, uint, address){... */\n              swap1\n              swap2\n              swap3\n              swap4\n              swap5\n              jump\t// out\n            tag_83:\n              dup3\n              dup1\n              sload\n              tag_92\n              swap1\n              tag_72\n              jump\t// in\n            tag_92:\n              swap1\n              0x00\n              mstore\n              keccak256(0x00, 0x20)\n              swap1\n              0x1f\n              add\n              0x20\n              swap1\n              div\n              dup2\n              add\n              swap3\n              dup3\n              tag_94\n              jumpi\n              0x00\n              dup6\n              sstore\n              jump(tag_93)\n            tag_94:\n              dup3\n              0x1f\n              lt\n              tag_95\n              jumpi\n              dup1\n              mload\n              not(0xff)\n              and\n              dup4\n              dup1\n              add\n              or\n              dup6\n              sstore\n              jump(tag_93)\n            tag_95:\n              dup3\n              dup1\n              add\n              0x01\n              add\n              dup6\n              sstore\n              dup3\n              iszero\n              tag_93\n              jumpi\n              swap2\n              dup3\n              add\n            tag_96:\n              dup3\n              dup2\n              gt\n              iszero\n              tag_97\n              jumpi\n              dup3\n              mload\n              dup3\n              sstore\n              swap2\n              0x20\n              add\n              swap2\n              swap1\n              0x01\n              add\n              swap1\n              jump(tag_96)\n            tag_97:\n            tag_93:\n              pop\n              swap1\n              pop\n              tag_98\n              swap2\n              swap1\n              tag_99\n              jump\t// in\n            tag_98:\n              pop\n              swap1\n              jump\t// out\n            tag_99:\n            tag_100:\n              dup1\n              dup3\n              gt\n              iszero\n              tag_101\n              jumpi\n              0x00\n              dup2\n              0x00\n              swap1\n              sstore\n              pop\n              0x01\n              add\n              jump(tag_100)\n            tag_101:\n              pop\n              swap1\n              jump\t// out\n                /* \"#utility.yul\":7:82   */\n            tag_102:\n                /* \"#utility.yul\":40:46   */\n              0x00\n                /* \"#utility.yul\":73:75   */\n              0x40\n                /* \"#utility.yul\":67:76   */\n              mload\n                /* \"#utility.yul\":57:76   */\n              swap1\n              pop\n                /* \"#utility.yul\":7:82   */\n              swap1\n              jump\t// out\n                /* \"#utility.yul\":88:205   */\n            tag_103:\n                /* \"#utility.yul\":197:198   */\n              0x00\n                /* \"#utility.yul\":194:195   */\n              dup1\n                /* \"#utility.yul\":187:199   */\n              revert\n                /* \"#utility.yul\":211:328   */\n            tag_104:\n                /* \"#utility.yul\":320:321   */\n              0x00\n                /* \"#utility.yul\":317:318   */\n              dup1\n                /* \"#utility.yul\":310:322   */\n              revert\n                /* \"#utility.yul\":334:411   */\n            tag_105:\n                /* \"#utility.yul\":371:378   */\n              0x00\n                /* \"#utility.yul\":400:405   */\n              dup2\n                /* \"#utility.yul\":389:405   */\n              swap1\n              pop\n                /* \"#utility.yul\":334:411   */\n              swap2\n              swap1\n              pop\n              jump\t// out\n                /* \"#utility.yul\":417:539   */\n            tag_106:\n                /* \"#utility.yul\":490:514   */\n              tag_139\n                /* \"#utility.yul\":508:513   */\n              dup2\n                /* \"#utility.yul\":490:514   */\n              tag_105\n              jump\t// in\n            tag_139:\n                /* \"#utility.yul\":483:488   */\n              dup2\n                /* \"#utility.yul\":480:515   */\n              eq\n                /* \"#utility.yul\":470:533   */\n              tag_140\n              jumpi\n                /* \"#utility.yul\":529:530   */\n              0x00\n                /* \"#utility.yul\":526:527   */\n              dup1\n                /* \"#utility.yul\":519:531   */\n              revert\n                /* \"#utility.yul\":470:533   */\n            tag_140:\n                /* \"#utility.yul\":417:539   */\n              pop\n              jump\t// out\n                /* \"#utility.yul\":545:684   */\n            tag_107:\n                /* \"#utility.yul\":591:596   */\n              0x00\n                /* \"#utility.yul\":629:635   */\n              dup2\n                /* \"#utility.yul\":616:636   */\n              calldataload\n                /* \"#utility.yul\":607:636   */\n              swap1\n              pop\n                /* \"#utility.yul\":645:678   */\n              tag_142\n                /* \"#utility.yul\":672:677   */\n              dup2\n                /* \"#utility.yul\":645:678   */\n              tag_106\n              jump\t// in\n            tag_142:\n                /* \"#utility.yul\":545:684   */\n              swap3\n              swap2\n              pop\n              pop\n              jump\t// out\n                /* \"#utility.yul\":690:1019   */\n            tag_16:\n                /* \"#utility.yul\":749:755   */\n              0x00\n                /* \"#utility.yul\":798:800   */\n              0x20\n                /* \"#utility.yul\":786:795   */\n              dup3\n                /* \"#utility.yul\":777:784   */\n              dup5\n                /* \"#utility.yul\":773:796   */\n              sub\n                /* \"#utility.yul\":769:801   */\n              slt\n                /* \"#utility.yul\":766:885   */\n              iszero\n              tag_144\n              jumpi\n                /* \"#utility.yul\":804:883   */\n              tag_145\n              tag_103\n              jump\t// in\n            tag_145:\n                /* \"#utility.yul\":766:885   */\n            tag_144:\n                /* \"#utility.yul\":924:925   */\n              0x00\n                /* \"#utility.yul\":949:1002   */\n              tag_146\n                /* \"#utility.yul\":994:1001   */\n              dup5\n                /* \"#utility.yul\":985:991   */\n              dup3\n                /* \"#utility.yul\":974:983   */\n              dup6\n                /* \"#utility.yul\":970:992   */\n              add\n                /* \"#utility.yul\":949:1002   */\n              tag_107\n              jump\t// in\n            tag_146:\n                /* \"#utility.yul\":939:1002   */\n              swap2\n              pop\n                /* \"#utility.yul\":895:1012   */\n              pop\n                /* \"#utility.yul\":690:1019   */\n              swap3\n              swap2\n              pop\n              pop\n              jump\t// out\n                /* \"#utility.yul\":1025:1151   */\n            tag_108:\n                /* \"#utility.yul\":1062:1069   */\n              0x00\n                /* \"#utility.yul\":1102:1144   */\n              0xffffffffffffffffffffffffffffffffffffffff\n                /* \"#utility.yul\":1095:1100   */\n              dup3\n                /* \"#utility.yul\":1091:1145   */\n              and\n                /* \"#utility.yul\":1080:1145   */\n              swap1\n              pop\n                /* \"#utility.yul\":1025:1151   */\n              swap2\n              swap1\n              pop\n              jump\t// out\n                /* \"#utility.yul\":1157:1253   */\n            tag_109:\n                /* \"#utility.yul\":1194:1201   */\n              0x00\n                /* \"#utility.yul\":1223:1247   */\n              tag_149\n                /* \"#utility.yul\":1241:1246   */\n              dup3\n                /* \"#utility.yul\":1223:1247   */\n              tag_108\n              jump\t// in\n            tag_149:\n                /* \"#utility.yul\":1212:1247   */\n              swap1\n              pop\n                /* \"#utility.yul\":1157:1253   */\n              swap2\n              swap1\n              pop\n              jump\t// out\n                /* \"#utility.yul\":1259:1381   */\n            tag_110:\n                /* \"#utility.yul\":1332:1356   */\n              tag_151\n                /* \"#utility.yul\":1350:1355   */\n              dup2\n                /* \"#utility.yul\":1332:1356   */\n              tag_109\n              jump\t// in\n            tag_151:\n                /* \"#utility.yul\":1325:1330   */\n              dup2\n                /* \"#utility.yul\":1322:1357   */\n              eq\n                /* \"#utility.yul\":1312:1375   */\n              tag_152\n              jumpi\n                /* \"#utility.yul\":1371:1372   */\n              0x00\n                /* \"#utility.yul\":1368:1369   */\n              dup1\n                /* \"#utility.yul\":1361:1373   */\n              revert\n                /* \"#utility.yul\":1312:1375   */\n            tag_152:\n                /* \"#utility.yul\":1259:1381   */\n              pop\n              jump\t// out\n                /* \"#utility.yul\":1387:1526   */\n            tag_111:\n                /* \"#utility.yul\":1433:1438   */\n              0x00\n                /* \"#utility.yul\":1471:1477   */\n              dup2\n                /* \"#utility.yul\":1458:1478   */\n              calldataload\n                /* \"#utility.yul\":1449:1478   */\n              swap1\n              pop\n                /* \"#utility.yul\":1487:1520   */\n              tag_154\n                /* \"#utility.yul\":1514:1519   */\n              dup2\n                /* \"#utility.yul\":1487:1520   */\n              tag_110\n              jump\t// in\n            tag_154:\n                /* \"#utility.yul\":1387:1526   */\n              swap3\n              swap2\n              pop\n              pop\n              jump\t// out\n                /* \"#utility.yul\":1532:1861   */\n            tag_21:\n                /* \"#utility.yul\":1591:1597   */\n              0x00\n                /* \"#utility.yul\":1640:1642   */\n              0x20\n                /* \"#utility.yul\":1628:1637   */\n              dup3\n                /* \"#utility.yul\":1619:1626   */\n              dup5\n                /* \"#utility.yul\":1615:1638   */\n              sub\n                /* \"#utility.yul\":1611:1643   */\n              slt\n                /* \"#utility.yul\":1608:1727   */\n              iszero\n              tag_156\n              jumpi\n                /* \"#utility.yul\":1646:1725   */\n              tag_157\n              tag_103\n              jump\t// in\n            tag_157:\n                /* \"#utility.yul\":1608:1727   */\n            tag_156:\n                /* \"#utility.yul\":1766:1767   */\n              0x00\n                /* \"#utility.yul\":1791:1844   */\n              tag_158\n                /* \"#utility.yul\":1836:1843   */\n              dup5\n                /* \"#utility.yul\":1827:1833   */\n              dup3\n                /* \"#utility.yul\":1816:1825   */\n              dup6\n                /* \"#utility.yul\":1812:1834   */\n              add\n                /* \"#utility.yul\":1791:1844   */\n              tag_111\n              jump\t// in\n            tag_158:\n                /* \"#utility.yul\":1781:1844   */\n              swap2\n              pop\n                /* \"#utility.yul\":1737:1854   */\n              pop\n                /* \"#utility.yul\":1532:1861   */\n              swap3\n              swap2\n              pop\n              pop\n              jump\t// out\n                /* \"#utility.yul\":1867:1957   */\n            tag_112:\n                /* \"#utility.yul\":1901:1908   */\n              0x00\n                /* \"#utility.yul\":1944:1949   */\n              dup2\n                /* \"#utility.yul\":1937:1950   */\n              iszero\n                /* \"#utility.yul\":1930:1951   */\n              iszero\n                /* \"#utility.yul\":1919:1951   */\n              swap1\n              pop\n                /* \"#utility.yul\":1867:1957   */\n              swap2\n              swap1\n              pop\n              jump\t// out\n                /* \"#utility.yul\":1963:2072   */\n            tag_113:\n                /* \"#utility.yul\":2044:2065   */\n              tag_161\n                /* \"#utility.yul\":2059:2064   */\n              dup2\n                /* \"#utility.yul\":2044:2065   */\n              tag_112\n              jump\t// in\n            tag_161:\n                /* \"#utility.yul\":2039:2042   */\n              dup3\n                /* \"#utility.yul\":2032:2066   */\n              mstore\n                /* \"#utility.yul\":1963:2072   */\n              pop\n              pop\n              jump\t// out\n                /* \"#utility.yul\":2078:2288   */\n            tag_24:\n                /* \"#utility.yul\":2165:2169   */\n              0x00\n                /* \"#utility.yul\":2203:2205   */\n              0x20\n                /* \"#utility.yul\":2192:2201   */\n              dup3\n                /* \"#utility.yul\":2188:2206   */\n              add\n                /* \"#utility.yul\":2180:2206   */\n              swap1\n              pop\n                /* \"#utility.yul\":2216:2281   */\n              tag_163\n                /* \"#utility.yul\":2278:2279   */\n              0x00\n                /* \"#utility.yul\":2267:2276   */\n              dup4\n                /* \"#utility.yul\":2263:2280   */\n              add\n                /* \"#utility.yul\":2254:2260   */\n              dup5\n                /* \"#utility.yul\":2216:2281   */\n              tag_113\n              jump\t// in\n            tag_163:\n                /* \"#utility.yul\":2078:2288   */\n              swap3\n              swap2\n              pop\n              pop\n              jump\t// out\n                /* \"#utility.yul\":2294:2412   */\n            tag_114:\n                /* \"#utility.yul\":2381:2405   */\n              tag_165\n                /* \"#utility.yul\":2399:2404   */\n              dup2\n                /* \"#utility.yul\":2381:2405   */\n              tag_105\n              jump\t// in\n            tag_165:\n                /* \"#utility.yul\":2376:2379   */\n              dup3\n                /* \"#utility.yul\":2369:2406   */\n              mstore\n                /* \"#utility.yul\":2294:2412   */\n              pop\n              pop\n              jump\t// out\n                /* \"#utility.yul\":2418:2640   */\n            tag_29:\n                /* \"#utility.yul\":2511:2515   */\n              0x00\n                /* \"#utility.yul\":2549:2551   */\n              0x20\n                /* \"#utility.yul\":2538:2547   */\n              dup3\n                /* \"#utility.yul\":2534:2552   */\n              add\n                /* \"#utility.yul\":2526:2552   */\n              swap1\n              pop\n                /* \"#utility.yul\":2562:2633   */\n              tag_167\n                /* \"#utility.yul\":2630:2631   */\n              0x00\n                /* \"#utility.yul\":2619:2628   */\n              dup4\n                /* \"#utility.yul\":2615:2632   */\n              add\n                /* \"#utility.yul\":2606:2612   */\n              dup5\n                /* \"#utility.yul\":2562:2633   */\n              tag_114\n              jump\t// in\n            tag_167:\n                /* \"#utility.yul\":2418:2640   */\n              swap3\n              swap2\n              pop\n              pop\n              jump\t// out\n                /* \"#utility.yul\":2646:2764   */\n            tag_115:\n                /* \"#utility.yul\":2733:2757   */\n              tag_169\n                /* \"#utility.yul\":2751:2756   */\n              dup2\n                /* \"#utility.yul\":2733:2757   */\n              tag_109\n              jump\t// in\n            tag_169:\n                /* \"#utility.yul\":2728:2731   */\n              dup3\n                /* \"#utility.yul\":2721:2758   */\n              mstore\n                /* \"#utility.yul\":2646:2764   */\n              pop\n              pop\n              jump\t// out\n                /* \"#utility.yul\":2770:2992   */\n            tag_34:\n                /* \"#utility.yul\":2863:2867   */\n              0x00\n                /* \"#utility.yul\":2901:2903   */\n              0x20\n                /* \"#utility.yul\":2890:2899   */\n              dup3\n                /* \"#utility.yul\":2886:2904   */\n              add\n                /* \"#utility.yul\":2878:2904   */\n              swap1\n              pop\n                /* \"#utility.yul\":2914:2985   */\n              tag_171\n                /* \"#utility.yul\":2982:2983   */\n              0x00\n                /* \"#utility.yul\":2971:2980   */\n              dup4\n                /* \"#utility.yul\":2967:2984   */\n              add\n                /* \"#utility.yul\":2958:2964   */\n              dup5\n                /* \"#utility.yul\":2914:2985   */\n              tag_115\n              jump\t// in\n            tag_171:\n                /* \"#utility.yul\":2770:2992   */\n              swap3\n              swap2\n              pop\n              pop\n              jump\t// out\n                /* \"#utility.yul\":2998:3097   */\n            tag_116:\n                /* \"#utility.yul\":3050:3056   */\n              0x00\n                /* \"#utility.yul\":3084:3089   */\n              dup2\n                /* \"#utility.yul\":3078:3090   */\n              mload\n                /* \"#utility.yul\":3068:3090   */\n              swap1\n              pop\n                /* \"#utility.yul\":2998:3097   */\n              swap2\n              swap1\n              pop\n              jump\t// out\n                /* \"#utility.yul\":3103:3272   */\n            tag_117:\n                /* \"#utility.yul\":3187:3198   */\n              0x00\n                /* \"#utility.yul\":3221:3227   */\n              dup3\n                /* \"#utility.yul\":3216:3219   */\n              dup3\n                /* \"#utility.yul\":3209:3228   */\n              mstore\n                /* \"#utility.yul\":3261:3265   */\n              0x20\n                /* \"#utility.yul\":3256:3259   */\n              dup3\n                /* \"#utility.yul\":3252:3266   */\n              add\n                /* \"#utility.yul\":3237:3266   */\n              swap1\n              pop\n                /* \"#utility.yul\":3103:3272   */\n              swap3\n              swap2\n              pop\n              pop\n              jump\t// out\n                /* \"#utility.yul\":3278:3585   */\n            tag_118:\n                /* \"#utility.yul\":3346:3347   */\n              0x00\n                /* \"#utility.yul\":3356:3469   */\n            tag_175:\n                /* \"#utility.yul\":3370:3376   */\n              dup4\n                /* \"#utility.yul\":3367:3368   */\n              dup2\n                /* \"#utility.yul\":3364:3377   */\n              lt\n                /* \"#utility.yul\":3356:3469   */\n              iszero\n              tag_177\n              jumpi\n                /* \"#utility.yul\":3455:3456   */\n              dup1\n                /* \"#utility.yul\":3450:3453   */\n              dup3\n                /* \"#utility.yul\":3446:3457   */\n              add\n                /* \"#utility.yul\":3440:3458   */\n              mload\n                /* \"#utility.yul\":3436:3437   */\n              dup2\n                /* \"#utility.yul\":3431:3434   */\n              dup5\n                /* \"#utility.yul\":3427:3438   */\n              add\n                /* \"#utility.yul\":3420:3459   */\n              mstore\n                /* \"#utility.yul\":3392:3394   */\n              0x20\n                /* \"#utility.yul\":3389:3390   */\n              dup2\n                /* \"#utility.yul\":3385:3395   */\n              add\n                /* \"#utility.yul\":3380:3395   */\n              swap1\n              pop\n                /* \"#utility.yul\":3356:3469   */\n              jump(tag_175)\n            tag_177:\n                /* \"#utility.yul\":3487:3493   */\n              dup4\n                /* \"#utility.yul\":3484:3485   */\n              dup2\n                /* \"#utility.yul\":3481:3494   */\n              gt\n                /* \"#utility.yul\":3478:3579   */\n              iszero\n              tag_178\n              jumpi\n                /* \"#utility.yul\":3567:3568   */\n              0x00\n                /* \"#utility.yul\":3558:3564   */\n              dup5\n                /* \"#utility.yul\":3553:3556   */\n              dup5\n                /* \"#utility.yul\":3549:3565   */\n              add\n                /* \"#utility.yul\":3542:3569   */\n              mstore\n                /* \"#utility.yul\":3478:3579   */\n            tag_178:\n                /* \"#utility.yul\":3327:3585   */\n              pop\n                /* \"#utility.yul\":3278:3585   */\n              pop\n              pop\n              pop\n              jump\t// out\n                /* \"#utility.yul\":3591:3693   */\n            tag_119:\n                /* \"#utility.yul\":3632:3638   */\n              0x00\n                /* \"#utility.yul\":3683:3685   */\n              0x1f\n                /* \"#utility.yul\":3679:3686   */\n              not\n                /* \"#utility.yul\":3674:3676   */\n              0x1f\n                /* \"#utility.yul\":3667:3672   */\n              dup4\n                /* \"#utility.yul\":3663:3677   */\n              add\n                /* \"#utility.yul\":3659:3687   */\n              and\n                /* \"#utility.yul\":3649:3687   */\n              swap1\n              pop\n                /* \"#utility.yul\":3591:3693   */\n              swap2\n              swap1\n              pop\n              jump\t// out\n                /* \"#utility.yul\":3699:4063   */\n            tag_120:\n                /* \"#utility.yul\":3787:3790   */\n              0x00\n                /* \"#utility.yul\":3815:3854   */\n              tag_181\n                /* \"#utility.yul\":3848:3853   */\n              dup3\n                /* \"#utility.yul\":3815:3854   */\n              tag_116\n              jump\t// in\n            tag_181:\n                /* \"#utility.yul\":3870:3941   */\n              tag_182\n                /* \"#utility.yul\":3934:3940   */\n              dup2\n                /* \"#utility.yul\":3929:3932   */\n              dup6\n                /* \"#utility.yul\":3870:3941   */\n              tag_117\n              jump\t// in\n            tag_182:\n                /* \"#utility.yul\":3863:3941   */\n              swap4\n              pop\n                /* \"#utility.yul\":3950:4002   */\n              tag_183\n                /* \"#utility.yul\":3995:4001   */\n              dup2\n                /* \"#utility.yul\":3990:3993   */\n              dup6\n                /* \"#utility.yul\":3983:3987   */\n              0x20\n                /* \"#utility.yul\":3976:3981   */\n              dup7\n                /* \"#utility.yul\":3972:3988   */\n              add\n                /* \"#utility.yul\":3950:4002   */\n              tag_118\n              jump\t// in\n            tag_183:\n                /* \"#utility.yul\":4027:4056   */\n              tag_184\n                /* \"#utility.yul\":4049:4055   */\n              dup2\n                /* \"#utility.yul\":4027:4056   */\n              tag_119\n              jump\t// in\n            tag_184:\n                /* \"#utility.yul\":4022:4025   */\n              dup5\n                /* \"#utility.yul\":4018:4057   */\n              add\n                /* \"#utility.yul\":4011:4057   */\n              swap2\n              pop\n                /* \"#utility.yul\":3791:4063   */\n              pop\n                /* \"#utility.yul\":3699:4063   */\n              swap3\n              swap2\n              pop\n              pop\n              jump\t// out\n                /* \"#utility.yul\":4069:4812   */\n            tag_40:\n                /* \"#utility.yul\":4288:4292   */\n              0x00\n                /* \"#utility.yul\":4326:4329   */\n              0xa0\n                /* \"#utility.yul\":4315:4324   */\n              dup3\n                /* \"#utility.yul\":4311:4330   */\n              add\n                /* \"#utility.yul\":4303:4330   */\n              swap1\n              pop\n                /* \"#utility.yul\":4376:4385   */\n              dup2\n                /* \"#utility.yul\":4370:4374   */\n              dup2\n                /* \"#utility.yul\":4366:4386   */\n              sub\n                /* \"#utility.yul\":4362:4363   */\n              0x00\n                /* \"#utility.yul\":4351:4360   */\n              dup4\n                /* \"#utility.yul\":4347:4364   */\n              add\n                /* \"#utility.yul\":4340:4387   */\n              mstore\n                /* \"#utility.yul\":4404:4482   */\n              tag_186\n                /* \"#utility.yul\":4477:4481   */\n              dup2\n                /* \"#utility.yul\":4468:4474   */\n              dup9\n                /* \"#utility.yul\":4404:4482   */\n              tag_120\n              jump\t// in\n            tag_186:\n                /* \"#utility.yul\":4396:4482   */\n              swap1\n              pop\n                /* \"#utility.yul\":4492:4564   */\n              tag_187\n                /* \"#utility.yul\":4560:4562   */\n              0x20\n                /* \"#utility.yul\":4549:4558   */\n              dup4\n                /* \"#utility.yul\":4545:4563   */\n              add\n                /* \"#utility.yul\":4536:4542   */\n              dup8\n                /* \"#utility.yul\":4492:4564   */\n              tag_114\n              jump\t// in\n            tag_187:\n                /* \"#utility.yul\":4574:4646   */\n              tag_188\n                /* \"#utility.yul\":4642:4644   */\n              0x40\n                /* \"#utility.yul\":4631:4640   */\n              dup4\n                /* \"#utility.yul\":4627:4645   */\n              add\n                /* \"#utility.yul\":4618:4624   */\n              dup7\n                /* \"#utility.yul\":4574:4646   */\n              tag_115\n              jump\t// in\n            tag_188:\n                /* \"#utility.yul\":4656:4722   */\n              tag_189\n                /* \"#utility.yul\":4718:4720   */\n              0x60\n                /* \"#utility.yul\":4707:4716   */\n              dup4\n                /* \"#utility.yul\":4703:4721   */\n              add\n                /* \"#utility.yul\":4694:4700   */\n              dup6\n                /* \"#utility.yul\":4656:4722   */\n              tag_113\n              jump\t// in\n            tag_189:\n                /* \"#utility.yul\":4732:4805   */\n              tag_190\n                /* \"#utility.yul\":4800:4803   */\n              0x80\n                /* \"#utility.yul\":4789:4798   */\n              dup4\n                /* \"#utility.yul\":4785:4804   */\n              add\n                /* \"#utility.yul\":4776:4782   */\n              dup5\n                /* \"#utility.yul\":4732:4805   */\n              tag_114\n              jump\t// in\n            tag_190:\n                /* \"#utility.yul\":4069:4812   */\n              swap7\n              swap6\n              pop\n              pop\n              pop\n              pop\n              pop\n              pop\n              jump\t// out\n                /* \"#utility.yul\":4818:4935   */\n            tag_121:\n                /* \"#utility.yul\":4927:4928   */\n              0x00\n                /* \"#utility.yul\":4924:4925   */\n              dup1\n                /* \"#utility.yul\":4917:4929   */\n              revert\n                /* \"#utility.yul\":4941:5058   */\n            tag_122:\n                /* \"#utility.yul\":5050:5051   */\n              0x00\n                /* \"#utility.yul\":5047:5048   */\n              dup1\n                /* \"#utility.yul\":5040:5052   */\n              revert\n                /* \"#utility.yul\":5064:5244   */\n            tag_123:\n                /* \"#utility.yul\":5112:5189   */\n              0x4e487b7100000000000000000000000000000000000000000000000000000000\n                /* \"#utility.yul\":5109:5110   */\n              0x00\n                /* \"#utility.yul\":5102:5190   */\n              mstore\n                /* \"#utility.yul\":5209:5213   */\n              0x41\n                /* \"#utility.yul\":5206:5207   */\n              0x04\n                /* \"#utility.yul\":5199:5214   */\n              mstore\n                /* \"#utility.yul\":5233:5237   */\n              0x24\n                /* \"#utility.yul\":5230:5231   */\n              0x00\n                /* \"#utility.yul\":5223:5238   */\n              revert\n                /* \"#utility.yul\":5250:5531   */\n            tag_124:\n                /* \"#utility.yul\":5333:5360   */\n              tag_195\n                /* \"#utility.yul\":5355:5359   */\n              dup3\n                /* \"#utility.yul\":5333:5360   */\n              tag_119\n              jump\t// in\n            tag_195:\n                /* \"#utility.yul\":5325:5331   */\n              dup2\n                /* \"#utility.yul\":5321:5361   */\n              add\n                /* \"#utility.yul\":5463:5469   */\n              dup2\n                /* \"#utility.yul\":5451:5461   */\n              dup2\n                /* \"#utility.yul\":5448:5470   */\n              lt\n                /* \"#utility.yul\":5427:5445   */\n              0xffffffffffffffff\n                /* \"#utility.yul\":5415:5425   */\n              dup3\n                /* \"#utility.yul\":5412:5446   */\n              gt\n                /* \"#utility.yul\":5409:5471   */\n              or\n                /* \"#utility.yul\":5406:5494   */\n              iszero\n              tag_196\n              jumpi\n                /* \"#utility.yul\":5474:5492   */\n              tag_197\n              tag_123\n              jump\t// in\n            tag_197:\n                /* \"#utility.yul\":5406:5494   */\n            tag_196:\n                /* \"#utility.yul\":5514:5524   */\n              dup1\n                /* \"#utility.yul\":5510:5512   */\n              0x40\n                /* \"#utility.yul\":5503:5525   */\n              mstore\n                /* \"#utility.yul\":5293:5531   */\n              pop\n                /* \"#utility.yul\":5250:5531   */\n              pop\n              pop\n              jump\t// out\n                /* \"#utility.yul\":5537:5666   */\n            tag_125:\n                /* \"#utility.yul\":5571:5577   */\n              0x00\n                /* \"#utility.yul\":5598:5618   */\n              tag_199\n              tag_102\n              jump\t// in\n            tag_199:\n                /* \"#utility.yul\":5588:5618   */\n              swap1\n              pop\n                /* \"#utility.yul\":5627:5660   */\n              tag_200\n                /* \"#utility.yul\":5655:5659   */\n              dup3\n                /* \"#utility.yul\":5647:5653   */\n              dup3\n                /* \"#utility.yul\":5627:5660   */\n              tag_124\n              jump\t// in\n            tag_200:\n                /* \"#utility.yul\":5537:5666   */\n              swap2\n              swap1\n              pop\n              jump\t// out\n                /* \"#utility.yul\":5672:5980   */\n            tag_126:\n                /* \"#utility.yul\":5734:5738   */\n              0x00\n                /* \"#utility.yul\":5824:5842   */\n              0xffffffffffffffff\n                /* \"#utility.yul\":5816:5822   */\n              dup3\n                /* \"#utility.yul\":5813:5843   */\n              gt\n                /* \"#utility.yul\":5810:5866   */\n              iszero\n              tag_202\n              jumpi\n                /* \"#utility.yul\":5846:5864   */\n              tag_203\n              tag_123\n              jump\t// in\n            tag_203:\n                /* \"#utility.yul\":5810:5866   */\n            tag_202:\n                /* \"#utility.yul\":5884:5913   */\n              tag_204\n                /* \"#utility.yul\":5906:5912   */\n              dup3\n                /* \"#utility.yul\":5884:5913   */\n              tag_119\n              jump\t// in\n            tag_204:\n                /* \"#utility.yul\":5876:5913   */\n              swap1\n              pop\n                /* \"#utility.yul\":5968:5972   */\n              0x20\n                /* \"#utility.yul\":5962:5966   */\n              dup2\n                /* \"#utility.yul\":5958:5973   */\n              add\n                /* \"#utility.yul\":5950:5973   */\n              swap1\n              pop\n                /* \"#utility.yul\":5672:5980   */\n              swap2\n              swap1\n              pop\n              jump\t// out\n                /* \"#utility.yul\":5986:6140   */\n            tag_127:\n                /* \"#utility.yul\":6070:6076   */\n              dup3\n                /* \"#utility.yul\":6065:6068   */\n              dup2\n                /* \"#utility.yul\":6060:6063   */\n              dup4\n                /* \"#utility.yul\":6047:6077   */\n              calldatacopy\n                /* \"#utility.yul\":6132:6133   */\n              0x00\n                /* \"#utility.yul\":6123:6129   */\n              dup4\n                /* \"#utility.yul\":6118:6121   */\n              dup4\n                /* \"#utility.yul\":6114:6130   */\n              add\n                /* \"#utility.yul\":6107:6134   */\n              mstore\n                /* \"#utility.yul\":5986:6140   */\n              pop\n              pop\n              pop\n              jump\t// out\n                /* \"#utility.yul\":6146:6558   */\n            tag_128:\n                /* \"#utility.yul\":6224:6229   */\n              0x00\n                /* \"#utility.yul\":6249:6315   */\n              tag_207\n                /* \"#utility.yul\":6265:6314   */\n              tag_208\n                /* \"#utility.yul\":6307:6313   */\n              dup5\n                /* \"#utility.yul\":6265:6314   */\n              tag_126\n              jump\t// in\n            tag_208:\n                /* \"#utility.yul\":6249:6315   */\n              tag_125\n              jump\t// in\n            tag_207:\n                /* \"#utility.yul\":6240:6315   */\n              swap1\n              pop\n                /* \"#utility.yul\":6338:6344   */\n              dup3\n                /* \"#utility.yul\":6331:6336   */\n              dup2\n                /* \"#utility.yul\":6324:6345   */\n              mstore\n                /* \"#utility.yul\":6376:6380   */\n              0x20\n                /* \"#utility.yul\":6369:6374   */\n              dup2\n                /* \"#utility.yul\":6365:6381   */\n              add\n                /* \"#utility.yul\":6414:6417   */\n              dup5\n                /* \"#utility.yul\":6405:6411   */\n              dup5\n                /* \"#utility.yul\":6400:6403   */\n              dup5\n                /* \"#utility.yul\":6396:6412   */\n              add\n                /* \"#utility.yul\":6393:6418   */\n              gt\n                /* \"#utility.yul\":6390:6502   */\n              iszero\n              tag_209\n              jumpi\n                /* \"#utility.yul\":6421:6500   */\n              tag_210\n              tag_122\n              jump\t// in\n            tag_210:\n                /* \"#utility.yul\":6390:6502   */\n            tag_209:\n                /* \"#utility.yul\":6511:6552   */\n              tag_211\n                /* \"#utility.yul\":6545:6551   */\n              dup5\n                /* \"#utility.yul\":6540:6543   */\n              dup3\n                /* \"#utility.yul\":6535:6538   */\n              dup6\n                /* \"#utility.yul\":6511:6552   */\n              tag_127\n              jump\t// in\n            tag_211:\n                /* \"#utility.yul\":6230:6558   */\n              pop\n                /* \"#utility.yul\":6146:6558   */\n              swap4\n              swap3\n              pop\n              pop\n              pop\n              jump\t// out\n                /* \"#utility.yul\":6578:6918   */\n            tag_129:\n                /* \"#utility.yul\":6634:6639   */\n              0x00\n                /* \"#utility.yul\":6683:6686   */\n              dup3\n                /* \"#utility.yul\":6676:6680   */\n              0x1f\n                /* \"#utility.yul\":6668:6674   */\n              dup4\n                /* \"#utility.yul\":6664:6681   */\n              add\n                /* \"#utility.yul\":6660:6687   */\n              slt\n                /* \"#utility.yul\":6650:6772   */\n              tag_213\n              jumpi\n                /* \"#utility.yul\":6691:6770   */\n              tag_214\n              tag_121\n              jump\t// in\n            tag_214:\n                /* \"#utility.yul\":6650:6772   */\n            tag_213:\n                /* \"#utility.yul\":6808:6814   */\n              dup2\n                /* \"#utility.yul\":6795:6815   */\n              calldataload\n                /* \"#utility.yul\":6833:6912   */\n              tag_215\n                /* \"#utility.yul\":6908:6911   */\n              dup5\n                /* \"#utility.yul\":6900:6906   */\n              dup3\n                /* \"#utility.yul\":6893:6897   */\n              0x20\n                /* \"#utility.yul\":6885:6891   */\n              dup7\n                /* \"#utility.yul\":6881:6898   */\n              add\n                /* \"#utility.yul\":6833:6912   */\n              tag_128\n              jump\t// in\n            tag_215:\n                /* \"#utility.yul\":6824:6912   */\n              swap2\n              pop\n                /* \"#utility.yul\":6640:6918   */\n              pop\n                /* \"#utility.yul\":6578:6918   */\n              swap3\n              swap2\n              pop\n              pop\n              jump\t// out\n                /* \"#utility.yul\":6924:7723   */\n            tag_44:\n                /* \"#utility.yul\":7011:7017   */\n              0x00\n                /* \"#utility.yul\":7019:7025   */\n              dup1\n                /* \"#utility.yul\":7027:7033   */\n              0x00\n                /* \"#utility.yul\":7076:7078   */\n              0x60\n                /* \"#utility.yul\":7064:7073   */\n              dup5\n                /* \"#utility.yul\":7055:7062   */\n              dup7\n                /* \"#utility.yul\":7051:7074   */\n              sub\n                /* \"#utility.yul\":7047:7079   */\n              slt\n                /* \"#utility.yul\":7044:7163   */\n              iszero\n              tag_217\n              jumpi\n                /* \"#utility.yul\":7082:7161   */\n              tag_218\n              tag_103\n              jump\t// in\n            tag_218:\n                /* \"#utility.yul\":7044:7163   */\n            tag_217:\n                /* \"#utility.yul\":7230:7231   */\n              0x00\n                /* \"#utility.yul\":7219:7228   */\n              dup5\n                /* \"#utility.yul\":7215:7232   */\n              add\n                /* \"#utility.yul\":7202:7233   */\n              calldataload\n                /* \"#utility.yul\":7260:7278   */\n              0xffffffffffffffff\n                /* \"#utility.yul\":7252:7258   */\n              dup2\n                /* \"#utility.yul\":7249:7279   */\n              gt\n                /* \"#utility.yul\":7246:7363   */\n              iszero\n              tag_219\n              jumpi\n                /* \"#utility.yul\":7282:7361   */\n              tag_220\n              tag_104\n              jump\t// in\n            tag_220:\n                /* \"#utility.yul\":7246:7363   */\n            tag_219:\n                /* \"#utility.yul\":7387:7450   */\n              tag_221\n                /* \"#utility.yul\":7442:7449   */\n              dup7\n                /* \"#utility.yul\":7433:7439   */\n              dup3\n                /* \"#utility.yul\":7422:7431   */\n              dup8\n                /* \"#utility.yul\":7418:7440   */\n              add\n                /* \"#utility.yul\":7387:7450   */\n              tag_129\n              jump\t// in\n            tag_221:\n                /* \"#utility.yul\":7377:7450   */\n              swap4\n              pop\n                /* \"#utility.yul\":7173:7460   */\n              pop\n                /* \"#utility.yul\":7499:7501   */\n              0x20\n                /* \"#utility.yul\":7525:7578   */\n              tag_222\n                /* \"#utility.yul\":7570:7577   */\n              dup7\n                /* \"#utility.yul\":7561:7567   */\n              dup3\n                /* \"#utility.yul\":7550:7559   */\n              dup8\n                /* \"#utility.yul\":7546:7568   */\n              add\n                /* \"#utility.yul\":7525:7578   */\n              tag_107\n              jump\t// in\n            tag_222:\n                /* \"#utility.yul\":7515:7578   */\n              swap3\n              pop\n                /* \"#utility.yul\":7470:7588   */\n              pop\n                /* \"#utility.yul\":7627:7629   */\n              0x40\n                /* \"#utility.yul\":7653:7706   */\n              tag_223\n                /* \"#utility.yul\":7698:7705   */\n              dup7\n                /* \"#utility.yul\":7689:7695   */\n              dup3\n                /* \"#utility.yul\":7678:7687   */\n              dup8\n                /* \"#utility.yul\":7674:7696   */\n              add\n                /* \"#utility.yul\":7653:7706   */\n              tag_111\n              jump\t// in\n            tag_223:\n                /* \"#utility.yul\":7643:7706   */\n              swap2\n              pop\n                /* \"#utility.yul\":7598:7716   */\n              pop\n                /* \"#utility.yul\":6924:7723   */\n              swap3\n              pop\n              swap3\n              pop\n              swap3\n              jump\t// out\n                /* \"#utility.yul\":7729:8393   */\n            tag_60:\n                /* \"#utility.yul\":7934:7938   */\n              0x00\n                /* \"#utility.yul\":7972:7975   */\n              0xa0\n                /* \"#utility.yul\":7961:7970   */\n              dup3\n                /* \"#utility.yul\":7957:7976   */\n              add\n                /* \"#utility.yul\":7949:7976   */\n              swap1\n              pop\n                /* \"#utility.yul\":7986:8057   */\n              tag_225\n                /* \"#utility.yul\":8054:8055   */\n              0x00\n                /* \"#utility.yul\":8043:8052   */\n              dup4\n                /* \"#utility.yul\":8039:8056   */\n              add\n                /* \"#utility.yul\":8030:8036   */\n              dup9\n                /* \"#utility.yul\":7986:8057   */\n              tag_114\n              jump\t// in\n            tag_225:\n                /* \"#utility.yul\":8067:8139   */\n              tag_226\n                /* \"#utility.yul\":8135:8137   */\n              0x20\n                /* \"#utility.yul\":8124:8133   */\n              dup4\n                /* \"#utility.yul\":8120:8138   */\n              add\n                /* \"#utility.yul\":8111:8117   */\n              dup8\n                /* \"#utility.yul\":8067:8139   */\n              tag_114\n              jump\t// in\n            tag_226:\n                /* \"#utility.yul\":8149:8221   */\n              tag_227\n                /* \"#utility.yul\":8217:8219   */\n              0x40\n                /* \"#utility.yul\":8206:8215   */\n              dup4\n                /* \"#utility.yul\":8202:8220   */\n              add\n                /* \"#utility.yul\":8193:8199   */\n              dup7\n                /* \"#utility.yul\":8149:8221   */\n              tag_114\n              jump\t// in\n            tag_227:\n                /* \"#utility.yul\":8231:8303   */\n              tag_228\n                /* \"#utility.yul\":8299:8301   */\n              0x60\n                /* \"#utility.yul\":8288:8297   */\n              dup4\n                /* \"#utility.yul\":8284:8302   */\n              add\n                /* \"#utility.yul\":8275:8281   */\n              dup6\n                /* \"#utility.yul\":8231:8303   */\n              tag_114\n              jump\t// in\n            tag_228:\n                /* \"#utility.yul\":8313:8386   */\n              tag_229\n                /* \"#utility.yul\":8381:8384   */\n              0x80\n                /* \"#utility.yul\":8370:8379   */\n              dup4\n                /* \"#utility.yul\":8366:8385   */\n              add\n                /* \"#utility.yul\":8357:8363   */\n              dup5\n                /* \"#utility.yul\":8313:8386   */\n              tag_115\n              jump\t// in\n            tag_229:\n                /* \"#utility.yul\":7729:8393   */\n              swap7\n              swap6\n              pop\n              pop\n              pop\n              pop\n              pop\n              pop\n              jump\t// out\n                /* \"#utility.yul\":8399:8579   */\n            tag_130:\n                /* \"#utility.yul\":8447:8524   */\n              0x4e487b7100000000000000000000000000000000000000000000000000000000\n                /* \"#utility.yul\":8444:8445   */\n              0x00\n                /* \"#utility.yul\":8437:8525   */\n              mstore\n                /* \"#utility.yul\":8544:8548   */\n              0x12\n                /* \"#utility.yul\":8541:8542   */\n              0x04\n                /* \"#utility.yul\":8534:8549   */\n              mstore\n                /* \"#utility.yul\":8568:8572   */\n              0x24\n                /* \"#utility.yul\":8565:8566   */\n              0x00\n                /* \"#utility.yul\":8558:8573   */\n              revert\n                /* \"#utility.yul\":8585:8765   */\n            tag_131:\n                /* \"#utility.yul\":8633:8710   */\n              0x4e487b7100000000000000000000000000000000000000000000000000000000\n                /* \"#utility.yul\":8630:8631   */\n              0x00\n                /* \"#utility.yul\":8623:8711   */\n              mstore\n                /* \"#utility.yul\":8730:8734   */\n              0x11\n                /* \"#utility.yul\":8727:8728   */\n              0x04\n                /* \"#utility.yul\":8720:8735   */\n              mstore\n                /* \"#utility.yul\":8754:8758   */\n              0x24\n                /* \"#utility.yul\":8751:8752   */\n              0x00\n                /* \"#utility.yul\":8744:8759   */\n              revert\n                /* \"#utility.yul\":8771:8956   */\n            tag_66:\n                /* \"#utility.yul\":8811:8812   */\n              0x00\n                /* \"#utility.yul\":8828:8848   */\n              tag_233\n                /* \"#utility.yul\":8846:8847   */\n              dup3\n                /* \"#utility.yul\":8828:8848   */\n              tag_105\n              jump\t// in\n            tag_233:\n                /* \"#utility.yul\":8823:8848   */\n              swap2\n              pop\n                /* \"#utility.yul\":8862:8882   */\n              tag_234\n                /* \"#utility.yul\":8880:8881   */\n              dup4\n                /* \"#utility.yul\":8862:8882   */\n              tag_105\n              jump\t// in\n            tag_234:\n                /* \"#utility.yul\":8857:8882   */\n              swap3\n              pop\n                /* \"#utility.yul\":8901:8902   */\n              dup3\n                /* \"#utility.yul\":8891:8926   */\n              tag_235\n              jumpi\n                /* \"#utility.yul\":8906:8924   */\n              tag_236\n              tag_130\n              jump\t// in\n            tag_236:\n                /* \"#utility.yul\":8891:8926   */\n            tag_235:\n                /* \"#utility.yul\":8948:8949   */\n              dup3\n                /* \"#utility.yul\":8945:8946   */\n              dup3\n                /* \"#utility.yul\":8941:8950   */\n              div\n                /* \"#utility.yul\":8936:8950   */\n              swap1\n              pop\n                /* \"#utility.yul\":8771:8956   */\n              swap3\n              swap2\n              pop\n              pop\n              jump\t// out\n                /* \"#utility.yul\":8962:9142   */\n            tag_132:\n                /* \"#utility.yul\":9010:9087   */\n              0x4e487b7100000000000000000000000000000000000000000000000000000000\n                /* \"#utility.yul\":9007:9008   */\n              0x00\n                /* \"#utility.yul\":9000:9088   */\n              mstore\n                /* \"#utility.yul\":9107:9111   */\n              0x22\n                /* \"#utility.yul\":9104:9105   */\n              0x04\n                /* \"#utility.yul\":9097:9112   */\n              mstore\n                /* \"#utility.yul\":9131:9135   */\n              0x24\n                /* \"#utility.yul\":9128:9129   */\n              0x00\n                /* \"#utility.yul\":9121:9136   */\n              revert\n                /* \"#utility.yul\":9148:9468   */\n            tag_72:\n                /* \"#utility.yul\":9192:9198   */\n              0x00\n                /* \"#utility.yul\":9229:9230   */\n              0x02\n                /* \"#utility.yul\":9223:9227   */\n              dup3\n                /* \"#utility.yul\":9219:9231   */\n              div\n                /* \"#utility.yul\":9209:9231   */\n              swap1\n              pop\n                /* \"#utility.yul\":9276:9277   */\n              0x01\n                /* \"#utility.yul\":9270:9274   */\n              dup3\n                /* \"#utility.yul\":9266:9278   */\n              and\n                /* \"#utility.yul\":9297:9315   */\n              dup1\n                /* \"#utility.yul\":9287:9368   */\n              tag_239\n              jumpi\n                /* \"#utility.yul\":9353:9357   */\n              0x7f\n                /* \"#utility.yul\":9345:9351   */\n              dup3\n                /* \"#utility.yul\":9341:9358   */\n              and\n                /* \"#utility.yul\":9331:9358   */\n              swap2\n              pop\n                /* \"#utility.yul\":9287:9368   */\n            tag_239:\n                /* \"#utility.yul\":9415:9417   */\n              0x20\n                /* \"#utility.yul\":9407:9413   */\n              dup3\n                /* \"#utility.yul\":9404:9418   */\n              lt\n                /* \"#utility.yul\":9384:9402   */\n              dup2\n                /* \"#utility.yul\":9381:9419   */\n              eq\n                /* \"#utility.yul\":9378:9462   */\n              iszero\n              tag_240\n              jumpi\n                /* \"#utility.yul\":9434:9452   */\n              tag_241\n              tag_132\n              jump\t// in\n            tag_241:\n                /* \"#utility.yul\":9378:9462   */\n            tag_240:\n                /* \"#utility.yul\":9199:9468   */\n              pop\n                /* \"#utility.yul\":9148:9468   */\n              swap2\n              swap1\n              pop\n              jump\t// out\n                /* \"#utility.yul\":9474:9707   */\n            tag_81:\n                /* \"#utility.yul\":9513:9516   */\n              0x00\n                /* \"#utility.yul\":9536:9560   */\n              tag_243\n                /* \"#utility.yul\":9554:9559   */\n              dup3\n                /* \"#utility.yul\":9536:9560   */\n              tag_105\n              jump\t// in\n            tag_243:\n                /* \"#utility.yul\":9527:9560   */\n              swap2\n              pop\n                /* \"#utility.yul\":9582:9648   */\n              0xffffffffffffffffffffffffffffffffffffffffffffffffffffffffffffffff\n                /* \"#utility.yul\":9575:9580   */\n              dup3\n                /* \"#utility.yul\":9572:9649   */\n              eq\n                /* \"#utility.yul\":9569:9672   */\n              iszero\n              tag_244\n              jumpi\n                /* \"#utility.yul\":9652:9670   */\n              tag_245\n              tag_131\n              jump\t// in\n            tag_245:\n                /* \"#utility.yul\":9569:9672   */\n            tag_244:\n                /* \"#utility.yul\":9699:9700   */\n              0x01\n                /* \"#utility.yul\":9692:9697   */\n              dup3\n                /* \"#utility.yul\":9688:9701   */\n              add\n                /* \"#utility.yul\":9681:9701   */\n              swap1\n              pop\n                /* \"#utility.yul\":9474:9707   */\n              swap2\n              swap1\n              pop\n              jump\t// out\n\n            auxdata: 0xa264697066735822122010b8ee79d916de9f791a1d6713aa4651acd5b6d2533a36dbe44952424955839664736f6c63430008090033\n        }\n    }\n\n    auxdata: 0xa26469706673582212206b9834f323bdd75044f422ec0ff41a216b673a0c8df42326bacd416f3bd6ad0664736f6c63430008090033\n}\n","bytecode":{"linkReferences":{},"object":"608060405234801561001057600080fd5b5061142a806100206000396000f3fe608060405234801561001057600080fd5b50600436106100415760003560e01c80634acb9d4f1461004657806360bf474414610064578063a3303a7514610094575b600080fd5b61004e6100b0565b60405161005b919061031b565b60405180910390f35b61007e60048036038101906100799190610378565b61013e565b60405161008b91906103b4565b60405180910390f35b6100ae60048036038101906100a99190610378565b61017d565b005b6060600080548060200260200160405190810160405280929190818152602001828054801561013457602002820191906000526020600020905b8160009054906101000a900473ffffffffffffffffffffffffffffffffffffffff1673ffffffffffffffffffffffffffffffffffffffff16815260200190600101908083116100ea575b5050505050905090565b6000818154811061014e57600080fd5b906000526020600020016000915054906101000a900473ffffffffffffffffffffffffffffffffffffffff1681565b6000813360405161018d9061021e565b6101989291906103de565b604051809103906000f0801580156101b4573d6000803e3d6000fd5b5090506000819080600181540180825580915050600190039060005260206000200160009091909190916101000a81548173ffffffffffffffffffffffffffffffffffffffff021916908373ffffffffffffffffffffffffffffffffffffffff1602179055505050565b610fed8061040883390190565b600081519050919050565b600082825260208201905092915050565b6000819050602082019050919050565b600073ffffffffffffffffffffffffffffffffffffffff82169050919050565b600061028282610257565b9050919050565b61029281610277565b82525050565b60006102a48383610289565b60208301905092915050565b6000602082019050919050565b60006102c88261022b565b6102d28185610236565b93506102dd83610247565b8060005b8381101561030e5781516102f58882610298565b9750610300836102b0565b9250506001810190506102e1565b5085935050505092915050565b6000602082019050818103600083015261033581846102bd565b905092915050565b600080fd5b6000819050919050565b61035581610342565b811461036057600080fd5b50565b6000813590506103728161034c565b92915050565b60006020828403121561038e5761038d61033d565b5b600061039c84828501610363565b91505092915050565b6103ae81610277565b82525050565b60006020820190506103c960008301846103a5565b92915050565b6103d881610342565b82525050565b60006040820190506103f360008301856103cf565b61040060208301846103a5565b939250505056fe60806040523480156200001157600080fd5b5060405162000fed38038062000fed833981810160405281019062000037919062000133565b806000806101000a81548173ffffffffffffffffffffffffffffffffffffffff021916908373ffffffffffffffffffffffffffffffffffffffff16021790555081600181905550600060048190555050506200017a565b600080fd5b6000819050919050565b620000a88162000093565b8114620000b457600080fd5b50565b600081519050620000c8816200009d565b92915050565b600073ffffffffffffffffffffffffffffffffffffffff82169050919050565b6000620000fb82620000ce565b9050919050565b6200010d81620000ee565b81146200011957600080fd5b50565b6000815190506200012d8162000102565b92915050565b600080604083850312156200014d576200014c6200008e565b5b60006200015d85828601620000b7565b925050602062000170858286016200011c565b9150509250929050565b610e63806200018a6000396000f3fe6080604052600436106100915760003560e01c80638a9cfd55116100595780638a9cfd5514610193578063937e09b1146101bc578063d7bb99ba146101e7578063d7d1bbdb146101f1578063fbbf93a01461021a57610091565b806303441006146100965780630a144391146100bf5780633fad1834146100fc578063481c6a751461012757806381d12c5814610152575b600080fd5b3480156100a257600080fd5b506100bd60048036038101906100b891906108c8565b610249565b005b3480156100cb57600080fd5b506100e660048036038101906100e19190610953565b610382565b6040516100f3919061099b565b60405180910390f35b34801561010857600080fd5b506101116103a2565b60405161011e91906109c5565b60405180910390f35b34801561013357600080fd5b5061013c6103ac565b60405161014991906109ef565b60405180910390f35b34801561015e57600080fd5b50610179600480360381019061017491906108c8565b6103d0565b60405161018a959493929190610aa3565b60405180910390f35b34801561019f57600080fd5b506101ba60048036038101906101b59190610c32565b6104bb565b005b3480156101c857600080fd5b506101d16105d2565b6040516101de91906109c5565b60405180910390f35b6101ef6105d8565b005b3480156101fd57600080fd5b50610218600480360381019061021391906108c8565b610659565b005b34801561022657600080fd5b5061022f610797565b604051610240959493929190610ca1565b60405180910390f35b60008054906101000a900473ffffffffffffffffffffffffffffffffffffffff1673ffffffffffffffffffffffffffffffffffffffff163373ffffffffffffffffffffffffffffffffffffffff16146102a157600080fd5b60006003600083815260200190815260200160002090508060020160149054906101000a900460ff16156102d457600080fd5b60026005546102e39190610d52565b8160030154116102f257600080fd5b8060020160009054906101000a900473ffffffffffffffffffffffffffffffffffffffff1673ffffffffffffffffffffffffffffffffffffffff166108fc82600101549081150290604051600060405180830381858888f19350505050158015610360573d6000803e3d6000fd5b5060018160020160146101000a81548160ff0219169083151502179055505050565b60026020528060005260406000206000915054906101000a900460ff1681565b6000600454905090565b60008054906101000a900473ffffffffffffffffffffffffffffffffffffffff1681565b60036020528060005260406000206000915090508060000180546103f390610db2565b80601f016020809104026020016040519081016040528092919081815260200182805461041f90610db2565b801561046c5780601f106104415761010080835404028352916020019161046c565b820191906000526020600020905b81548152906001019060200180831161044f57829003601f168201915b5050505050908060010154908060020160009054906101000a900473ffffffffffffffffffffffffffffffffffffffff16908060020160149054906101000a900460ff16908060030154905085565b60008054906101000a900473ffffffffffffffffffffffffffffffffffffffff1673ffffffffffffffffffffffffffffffffffffffff163373ffffffffffffffffffffffffffffffffffffffff161461051357600080fd5b6000600360006004600081548092919061052c90610de4565b9190505581526020019081526020016000209050838160000190805190602001906105589291906107db565b50828160010181905550818160020160006101000a81548173ffffffffffffffffffffffffffffffffffffffff021916908373ffffffffffffffffffffffffffffffffffffffff16021790555060008160020160146101000a81548160ff0219169083151502179055506000816003018190555050505050565b60015481565b6001543410156105e757600080fd5b600560008154809291906105fa90610de4565b91905055506001600260003373ffffffffffffffffffffffffffffffffffffffff1673ffffffffffffffffffffffffffffffffffffffff16815260200190815260200160002060006101000a81548160ff021916908315150217905550565b6000600360008381526020019081526020016000209050600260003373ffffffffffffffffffffffffffffffffffffffff1673ffffffffffffffffffffffffffffffffffffffff16815260200190815260200160002060009054906101000a900460ff166106c657600080fd5b8060040160003373ffffffffffffffffffffffffffffffffffffffff1673ffffffffffffffffffffffffffffffffffffffff16815260200190815260200160002060009054906101000a900460ff161561071f57600080fd5b80600301600081548092919061073490610de4565b919050555060018160040160003373ffffffffffffffffffffffffffffffffffffffff1673ffffffffffffffffffffffffffffffffffffffff16815260200190815260200160002060006101000a81548160ff0219169083151502179055505050565b60008060008060006001544760045460055460008054906101000a900473ffffffffffffffffffffffffffffffffffffffff16945094509450945094509091929394565b8280546107e790610db2565b90600052602060002090601f0160209004810192826108095760008555610850565b82601f1061082257805160ff1916838001178555610850565b82800160010185558215610850579182015b8281111561084f578251825591602001919060010190610834565b5b50905061085d9190610861565b5090565b5b8082111561087a576000816000905550600101610862565b5090565b6000604051905090565b600080fd5b600080fd5b6000819050919050565b6108a581610892565b81146108b057600080fd5b50565b6000813590506108c28161089c565b92915050565b6000602082840312156108de576108dd610888565b5b60006108ec848285016108b3565b91505092915050565b600073ffffffffffffffffffffffffffffffffffffffff82169050919050565b6000610920826108f5565b9050919050565b61093081610915565b811461093b57600080fd5b50565b60008135905061094d81610927565b92915050565b60006020828403121561096957610968610888565b5b60006109778482850161093e565b91505092915050565b60008115159050919050565b61099581610980565b82525050565b60006020820190506109b0600083018461098c565b92915050565b6109bf81610892565b82525050565b60006020820190506109da60008301846109b6565b92915050565b6109e981610915565b82525050565b6000602082019050610a0460008301846109e0565b92915050565b600081519050919050565b600082825260208201905092915050565b60005b83811015610a44578082015181840152602081019050610a29565b83811115610a53576000848401525b50505050565b6000601f19601f8301169050919050565b6000610a7582610a0a565b610a7f8185610a15565b9350610a8f818560208601610a26565b610a9881610a59565b840191505092915050565b600060a0820190508181036000830152610abd8188610a6a565b9050610acc60208301876109b6565b610ad960408301866109e0565b610ae6606083018561098c565b610af360808301846109b6565b9695505050505050565b600080fd5b600080fd5b7f4e487b7100000000000000000000000000000000000000000000000000000000600052604160045260246000fd5b610b3f82610a59565b810181811067ffffffffffffffff82111715610b5e57610b5d610b07565b5b80604052505050565b6000610b7161087e565b9050610b7d8282610b36565b919050565b600067ffffffffffffffff821115610b9d57610b9c610b07565b5b610ba682610a59565b9050602081019050919050565b82818337600083830152505050565b6000610bd5610bd084610b82565b610b67565b905082815260208101848484011115610bf157610bf0610b02565b5b610bfc848285610bb3565b509392505050565b600082601f830112610c1957610c18610afd565b5b8135610c29848260208601610bc2565b91505092915050565b600080600060608486031215610c4b57610c4a610888565b5b600084013567ffffffffffffffff811115610c6957610c6861088d565b5b610c7586828701610c04565b9350506020610c86868287016108b3565b9250506040610c978682870161093e565b9150509250925092565b600060a082019050610cb660008301886109b6565b610cc360208301876109b6565b610cd060408301866109b6565b610cdd60608301856109b6565b610cea60808301846109e0565b9695505050505050565b7f4e487b7100000000000000000000000000000000000000000000000000000000600052601260045260246000fd5b7f4e487b7100000000000000000000000000000000000000000000000000000000600052601160045260246000fd5b6000610d5d82610892565b9150610d6883610892565b925082610d7857610d77610cf4565b5b828204905092915050565b7f4e487b7100000000000000000000000000000000000000000000000000000000600052602260045260246000fd5b60006002820490506001821680610dca57607f821691505b60208210811415610dde57610ddd610d83565b5b50919050565b6000610def82610892565b91507fffffffffffffffffffffffffffffffffffffffffffffffffffffffffffffffff821415610e2257610e21610d23565b5b60018201905091905056fea264697066735822122010b8ee79d916de9f791a1d6713aa4651acd5b6d2533a36dbe44952424955839664736f6c63430008090033a26469706673582212206b9834f323bdd75044f422ec0ff41a216b673a0c8df42326bacd416f3bd6ad0664736f6c63430008090033","opcodes":"PUSH1 0x80 PUSH1 0x40 MSTORE CALLVALUE DUP1 ISZERO PUSH2 0x10 JUMPI PUSH1 0x0 DUP1 REVERT JUMPDEST POP PUSH2 0x142A DUP1 PUSH2 0x20 PUSH1 0x0 CODECOPY PUSH1 0x0 RETURN INVALID PUSH1 0x80 PUSH1 0x40 MSTORE CALLVALUE DUP1 ISZERO PUSH2 0x10 JUMPI PUSH1 0x0 DUP1 REVERT JUMPDEST POP PUSH1 0x4 CALLDATASIZE LT PUSH2 0x41 JUMPI PUSH1 0x0 CALLDATALOAD PUSH1 0xE0 SHR DUP1 PUSH4 0x4ACB9D4F EQ PUSH2 0x46 JUMPI DUP1 PUSH4 0x60BF4744 EQ PUSH2 0x64 JUMPI DUP1 PUSH4 0xA3303A75 EQ PUSH2 0x94 JUMPI JUMPDEST PUSH1 0x0 DUP1 REVERT JUMPDEST PUSH2 0x4E PUSH2 0xB0 JUMP JUMPDEST PUSH1 0x40 MLOAD PUSH2 0x5B SWAP2 SWAP1 PUSH2 0x31B JUMP JUMPDEST PUSH1 0x40 MLOAD DUP1 SWAP2 SUB SWAP1 RETURN JUMPDEST PUSH2 0x7E PUSH1 0x4 DUP1 CALLDATASIZE SUB DUP2 ADD SWAP1 PUSH2 0x79 SWAP2 SWAP1 PUSH2 0x378 JUMP JUMPDEST PUSH2 0x13E JUMP JUMPDEST PUSH1 0x40 MLOAD PUSH2 0x8B SWAP2 SWAP1 PUSH2 0x3B4 JUMP JUMPDEST PUSH1 0x40 MLOAD DUP1 SWAP2 SUB SWAP1 RETURN JUMPDEST PUSH2 0xAE PUSH1 0x4 DUP1 CALLDATASIZE SUB DUP2 ADD SWAP1 PUSH2 0xA9 SWAP2 SWAP1 PUSH2 0x378 JUMP JUMPDEST PUSH2 0x17D JUMP JUMPDEST STOP JUMPDEST PUSH1 0x60 PUSH1 0x0 DUP1 SLOAD DUP1 PUSH1 0x20 MUL PUSH1 0x20 ADD PUSH1 0x40 MLOAD SWAP1 DUP2 ADD PUSH1 0x40 MSTORE DUP1 SWAP3 SWAP2 SWAP1 DUP2 DUP2 MSTORE PUSH1 0x20 ADD DUP3 DUP1 SLOAD DUP1 ISZERO PUSH2 0x134 JUMPI PUSH1 0x20 MUL DUP3 ADD SWAP2 SWAP1 PUSH1 0x0 MSTORE PUSH1 0x20 PUSH1 0x0 KECCAK256 SWAP1 JUMPDEST DUP2 PUSH1 0x0 SWAP1 SLOAD SWAP1 PUSH2 0x100 EXP SWAP1 DIV PUSH20 0xFFFFFFFFFFFFFFFFFFFFFFFFFFFFFFFFFFFFFFFF AND PUSH20 0xFFFFFFFFFFFFFFFFFFFFFFFFFFFFFFFFFFFFFFFF AND DUP2 MSTORE PUSH1 0x20 ADD SWAP1 PUSH1 0x1 ADD SWAP1 DUP1 DUP4 GT PUSH2 0xEA JUMPI JUMPDEST POP POP POP POP POP SWAP1 POP SWAP1 JUMP JUMPDEST PUSH1 0x0 DUP2 DUP2 SLOAD DUP2 LT PUSH2 0x14E JUMPI PUSH1 0x0 DUP1 REVERT JUMPDEST SWAP1 PUSH1 0x0 MSTORE PUSH1 0x20 PUSH1 0x0 KECCAK256 ADD PUSH1 0x0 SWAP2 POP SLOAD SWAP1 PUSH2 0x100 EXP SWAP1 DIV PUSH20 0xFFFFFFFFFFFFFFFFFFFFFFFFFFFFFFFFFFFFFFFF AND DUP2 JUMP JUMPDEST PUSH1 0x0 DUP2 CALLER PUSH1 0x40 MLOAD PUSH2 0x18D SWAP1 PUSH2 0x21E JUMP JUMPDEST PUSH2 0x198 SWAP3 SWAP2 SWAP1 PUSH2 0x3DE JUMP JUMPDEST PUSH1 0x40 MLOAD DUP1 SWAP2 SUB SWAP1 PUSH1 0x0 CREATE DUP1 ISZERO DUP1 ISZERO PUSH2 0x1B4 JUMPI RETURNDATASIZE PUSH1 0x0 DUP1 RETURNDATACOPY RETURNDATASIZE PUSH1 0x0 REVERT JUMPDEST POP SWAP1 POP PUSH1 0x0 DUP2 SWAP1 DUP1 PUSH1 0x1 DUP2 SLOAD ADD DUP1 DUP3 SSTORE DUP1 SWAP2 POP POP PUSH1 0x1 SWAP1 SUB SWAP1 PUSH1 0x0 MSTORE PUSH1 0x20 PUSH1 0x0 KECCAK256 ADD PUSH1 0x0 SWAP1 SWAP2 SWAP1 SWAP2 SWAP1 SWAP2 PUSH2 0x100 EXP DUP2 SLOAD DUP2 PUSH20 0xFFFFFFFFFFFFFFFFFFFFFFFFFFFFFFFFFFFFFFFF MUL NOT AND SWAP1 DUP4 PUSH20 0xFFFFFFFFFFFFFFFFFFFFFFFFFFFFFFFFFFFFFFFF AND MUL OR SWAP1 SSTORE POP POP POP JUMP JUMPDEST PUSH2 0xFED DUP1 PUSH2 0x408 DUP4 CODECOPY ADD SWAP1 JUMP JUMPDEST PUSH1 0x0 DUP2 MLOAD SWAP1 POP SWAP2 SWAP1 POP JUMP JUMPDEST PUSH1 0x0 DUP3 DUP3 MSTORE PUSH1 0x20 DUP3 ADD SWAP1 POP SWAP3 SWAP2 POP POP JUMP JUMPDEST PUSH1 0x0 DUP2 SWAP1 POP PUSH1 0x20 DUP3 ADD SWAP1 POP SWAP2 SWAP1 POP JUMP JUMPDEST PUSH1 0x0 PUSH20 0xFFFFFFFFFFFFFFFFFFFFFFFFFFFFFFFFFFFFFFFF DUP3 AND SWAP1 POP SWAP2 SWAP1 POP JUMP JUMPDEST PUSH1 0x0 PUSH2 0x282 DUP3 PUSH2 0x257 JUMP JUMPDEST SWAP1 POP SWAP2 SWAP1 POP JUMP JUMPDEST PUSH2 0x292 DUP2 PUSH2 0x277 JUMP JUMPDEST DUP3 MSTORE POP POP JUMP JUMPDEST PUSH1 0x0 PUSH2 0x2A4 DUP4 DUP4 PUSH2 0x289 JUMP JUMPDEST PUSH1 0x20 DUP4 ADD SWAP1 POP SWAP3 SWAP2 POP POP JUMP JUMPDEST PUSH1 0x0 PUSH1 0x20 DUP3 ADD SWAP1 POP SWAP2 SWAP1 POP JUMP JUMPDEST PUSH1 0x0 PUSH2 0x2C8 DUP3 PUSH2 0x22B JUMP JUMPDEST PUSH2 0x2D2 DUP2 DUP6 PUSH2 0x236 JUMP JUMPDEST SWAP4 POP PUSH2 0x2DD DUP4 PUSH2 0x247 JUMP JUMPDEST DUP1 PUSH1 0x0 JUMPDEST DUP4 DUP2 LT ISZERO PUSH2 0x30E JUMPI DUP2 MLOAD PUSH2 0x2F5 DUP9 DUP3 PUSH2 0x298 JUMP JUMPDEST SWAP8 POP PUSH2 0x300 DUP4 PUSH2 0x2B0 JUMP JUMPDEST SWAP3 POP POP PUSH1 0x1 DUP2 ADD SWAP1 POP PUSH2 0x2E1 JUMP JUMPDEST POP DUP6 SWAP4 POP POP POP POP SWAP3 SWAP2 POP POP JUMP JUMPDEST PUSH1 0x0 PUSH1 0x20 DUP3 ADD SWAP1 POP DUP2 DUP2 SUB PUSH1 0x0 DUP4 ADD MSTORE PUSH2 0x335 DUP2 DUP5 PUSH2 0x2BD JUMP JUMPDEST SWAP1 POP SWAP3 SWAP2 POP POP JUMP JUMPDEST PUSH1 0x0 DUP1 REVERT JUMPDEST PUSH1 0x0 DUP2 SWAP1 POP SWAP2 SWAP1 POP JUMP JUMPDEST PUSH2 0x355 DUP2 PUSH2 0x342 JUMP JUMPDEST DUP2 EQ PUSH2 0x360 JUMPI PUSH1 0x0 DUP1 REVERT JUMPDEST POP JUMP JUMPDEST PUSH1 0x0 DUP2 CALLDATALOAD SWAP1 POP PUSH2 0x372 DUP2 PUSH2 0x34C JUMP JUMPDEST SWAP3 SWAP2 POP POP JUMP JUMPDEST PUSH1 0x0 PUSH1 0x20 DUP3 DUP5 SUB SLT ISZERO PUSH2 0x38E JUMPI PUSH2 0x38D PUSH2 0x33D JUMP JUMPDEST JUMPDEST PUSH1 0x0 PUSH2 0x39C DUP5 DUP3 DUP6 ADD PUSH2 0x363 JUMP JUMPDEST SWAP2 POP POP SWAP3 SWAP2 POP POP JUMP JUMPDEST PUSH2 0x3AE DUP2 PUSH2 0x277 JUMP JUMPDEST DUP3 MSTORE POP POP JUMP JUMPDEST PUSH1 0x0 PUSH1 0x20 DUP3 ADD SWAP1 POP PUSH2 0x3C9 PUSH1 0x0 DUP4 ADD DUP5 PUSH2 0x3A5 JUMP JUMPDEST SWAP3 SWAP2 POP POP JUMP JUMPDEST PUSH2 0x3D8 DUP2 PUSH2 0x342 JUMP JUMPDEST DUP3 MSTORE POP POP JUMP JUMPDEST PUSH1 0x0 PUSH1 0x40 DUP3 ADD SWAP1 POP PUSH2 0x3F3 PUSH1 0x0 DUP4 ADD DUP6 PUSH2 0x3CF JUMP JUMPDEST PUSH2 0x400 PUSH1 0x20 DUP4 ADD DUP5 PUSH2 0x3A5 JUMP JUMPDEST SWAP4 SWAP3 POP POP POP JUMP INVALID PUSH1 0x80 PUSH1 0x40 MSTORE CALLVALUE DUP1 ISZERO PUSH3 0x11 JUMPI PUSH1 0x0 DUP1 REVERT JUMPDEST POP PUSH1 0x40 MLOAD PUSH3 0xFED CODESIZE SUB DUP1 PUSH3 0xFED DUP4 CODECOPY DUP2 DUP2 ADD PUSH1 0x40 MSTORE DUP2 ADD SWAP1 PUSH3 0x37 SWAP2 SWAP1 PUSH3 0x133 JUMP JUMPDEST DUP1 PUSH1 0x0 DUP1 PUSH2 0x100 EXP DUP2 SLOAD DUP2 PUSH20 0xFFFFFFFFFFFFFFFFFFFFFFFFFFFFFFFFFFFFFFFF MUL NOT AND SWAP1 DUP4 PUSH20 0xFFFFFFFFFFFFFFFFFFFFFFFFFFFFFFFFFFFFFFFF AND MUL OR SWAP1 SSTORE POP DUP2 PUSH1 0x1 DUP2 SWAP1 SSTORE POP PUSH1 0x0 PUSH1 0x4 DUP2 SWAP1 SSTORE POP POP POP PUSH3 0x17A JUMP JUMPDEST PUSH1 0x0 DUP1 REVERT JUMPDEST PUSH1 0x0 DUP2 SWAP1 POP SWAP2 SWAP1 POP JUMP JUMPDEST PUSH3 0xA8 DUP2 PUSH3 0x93 JUMP JUMPDEST DUP2 EQ PUSH3 0xB4 JUMPI PUSH1 0x0 DUP1 REVERT JUMPDEST POP JUMP JUMPDEST PUSH1 0x0 DUP2 MLOAD SWAP1 POP PUSH3 0xC8 DUP2 PUSH3 0x9D JUMP JUMPDEST SWAP3 SWAP2 POP POP JUMP JUMPDEST PUSH1 0x0 PUSH20 0xFFFFFFFFFFFFFFFFFFFFFFFFFFFFFFFFFFFFFFFF DUP3 AND SWAP1 POP SWAP2 SWAP1 POP JUMP JUMPDEST PUSH1 0x0 PUSH3 0xFB DUP3 PUSH3 0xCE JUMP JUMPDEST SWAP1 POP SWAP2 SWAP1 POP JUMP JUMPDEST PUSH3 0x10D DUP2 PUSH3 0xEE JUMP JUMPDEST DUP2 EQ PUSH3 0x119 JUMPI PUSH1 0x0 DUP1 REVERT JUMPDEST POP JUMP JUMPDEST PUSH1 0x0 DUP2 MLOAD SWAP1 POP PUSH3 0x12D DUP2 PUSH3 0x102 JUMP JUMPDEST SWAP3 SWAP2 POP POP JUMP JUMPDEST PUSH1 0x0 DUP1 PUSH1 0x40 DUP4 DUP6 SUB SLT ISZERO PUSH3 0x14D JUMPI PUSH3 0x14C PUSH3 0x8E JUMP JUMPDEST JUMPDEST PUSH1 0x0 PUSH3 0x15D DUP6 DUP3 DUP7 ADD PUSH3 0xB7 JUMP JUMPDEST SWAP3 POP POP PUSH1 0x20 PUSH3 0x170 DUP6 DUP3 DUP7 ADD PUSH3 0x11C JUMP JUMPDEST SWAP2 POP POP SWAP3 POP SWAP3 SWAP1 POP JUMP JUMPDEST PUSH2 0xE63 DUP1 PUSH3 0x18A PUSH1 0x0 CODECOPY PUSH1 0x0 RETURN INVALID PUSH1 0x80 PUSH1 0x40 MSTORE PUSH1 0x4 CALLDATASIZE LT PUSH2 0x91 JUMPI PUSH1 0x0 CALLDATALOAD PUSH1 0xE0 SHR DUP1 PUSH4 0x8A9CFD55 GT PUSH2 0x59 JUMPI DUP1 PUSH4 0x8A9CFD55 EQ PUSH2 0x193 JUMPI DUP1 PUSH4 0x937E09B1 EQ PUSH2 0x1BC JUMPI DUP1 PUSH4 0xD7BB99BA EQ PUSH2 0x1E7 JUMPI DUP1 PUSH4 0xD7D1BBDB EQ PUSH2 0x1F1 JUMPI DUP1 PUSH4 0xFBBF93A0 EQ PUSH2 0x21A JUMPI PUSH2 0x91 JUMP JUMPDEST DUP1 PUSH4 0x3441006 EQ PUSH2 0x96 JUMPI DUP1 PUSH4 0xA144391 EQ PUSH2 0xBF JUMPI DUP1 PUSH4 0x3FAD1834 EQ PUSH2 0xFC JUMPI DUP1 PUSH4 0x481C6A75 EQ PUSH2 0x127 JUMPI DUP1 PUSH4 0x81D12C58 EQ PUSH2 0x152 JUMPI JUMPDEST PUSH1 0x0 DUP1 REVERT JUMPDEST CALLVALUE DUP1 ISZERO PUSH2 0xA2 JUMPI PUSH1 0x0 DUP1 REVERT JUMPDEST POP PUSH2 0xBD PUSH1 0x4 DUP1 CALLDATASIZE SUB DUP2 ADD SWAP1 PUSH2 0xB8 SWAP2 SWAP1 PUSH2 0x8C8 JUMP JUMPDEST PUSH2 0x249 JUMP JUMPDEST STOP JUMPDEST CALLVALUE DUP1 ISZERO PUSH2 0xCB JUMPI PUSH1 0x0 DUP1 REVERT JUMPDEST POP PUSH2 0xE6 PUSH1 0x4 DUP1 CALLDATASIZE SUB DUP2 ADD SWAP1 PUSH2 0xE1 SWAP2 SWAP1 PUSH2 0x953 JUMP JUMPDEST PUSH2 0x382 JUMP JUMPDEST PUSH1 0x40 MLOAD PUSH2 0xF3 SWAP2 SWAP1 PUSH2 0x99B JUMP JUMPDEST PUSH1 0x40 MLOAD DUP1 SWAP2 SUB SWAP1 RETURN JUMPDEST CALLVALUE DUP1 ISZERO PUSH2 0x108 JUMPI PUSH1 0x0 DUP1 REVERT JUMPDEST POP PUSH2 0x111 PUSH2 0x3A2 JUMP JUMPDEST PUSH1 0x40 MLOAD PUSH2 0x11E SWAP2 SWAP1 PUSH2 0x9C5 JUMP JUMPDEST PUSH1 0x40 MLOAD DUP1 SWAP2 SUB SWAP1 RETURN JUMPDEST CALLVALUE DUP1 ISZERO PUSH2 0x133 JUMPI PUSH1 0x0 DUP1 REVERT JUMPDEST POP PUSH2 0x13C PUSH2 0x3AC JUMP JUMPDEST PUSH1 0x40 MLOAD PUSH2 0x149 SWAP2 SWAP1 PUSH2 0x9EF JUMP JUMPDEST PUSH1 0x40 MLOAD DUP1 SWAP2 SUB SWAP1 RETURN JUMPDEST CALLVALUE DUP1 ISZERO PUSH2 0x15E JUMPI PUSH1 0x0 DUP1 REVERT JUMPDEST POP PUSH2 0x179 PUSH1 0x4 DUP1 CALLDATASIZE SUB DUP2 ADD SWAP1 PUSH2 0x174 SWAP2 SWAP1 PUSH2 0x8C8 JUMP JUMPDEST PUSH2 0x3D0 JUMP JUMPDEST PUSH1 0x40 MLOAD PUSH2 0x18A SWAP6 SWAP5 SWAP4 SWAP3 SWAP2 SWAP1 PUSH2 0xAA3 JUMP JUMPDEST PUSH1 0x40 MLOAD DUP1 SWAP2 SUB SWAP1 RETURN JUMPDEST CALLVALUE DUP1 ISZERO PUSH2 0x19F JUMPI PUSH1 0x0 DUP1 REVERT JUMPDEST POP PUSH2 0x1BA PUSH1 0x4 DUP1 CALLDATASIZE SUB DUP2 ADD SWAP1 PUSH2 0x1B5 SWAP2 SWAP1 PUSH2 0xC32 JUMP JUMPDEST PUSH2 0x4BB JUMP JUMPDEST STOP JUMPDEST CALLVALUE DUP1 ISZERO PUSH2 0x1C8 JUMPI PUSH1 0x0 DUP1 REVERT JUMPDEST POP PUSH2 0x1D1 PUSH2 0x5D2 JUMP JUMPDEST PUSH1 0x40 MLOAD PUSH2 0x1DE SWAP2 SWAP1 PUSH2 0x9C5 JUMP JUMPDEST PUSH1 0x40 MLOAD DUP1 SWAP2 SUB SWAP1 RETURN JUMPDEST PUSH2 0x1EF PUSH2 0x5D8 JUMP JUMPDEST STOP JUMPDEST CALLVALUE DUP1 ISZERO PUSH2 0x1FD JUMPI PUSH1 0x0 DUP1 REVERT JUMPDEST POP PUSH2 0x218 PUSH1 0x4 DUP1 CALLDATASIZE SUB DUP2 ADD SWAP1 PUSH2 0x213 SWAP2 SWAP1 PUSH2 0x8C8 JUMP JUMPDEST PUSH2 0x659 JUMP JUMPDEST STOP JUMPDEST CALLVALUE DUP1 ISZERO PUSH2 0x226 JUMPI PUSH1 0x0 DUP1 REVERT JUMPDEST POP PUSH2 0x22F PUSH2 0x797 JUMP JUMPDEST PUSH1 0x40 MLOAD PUSH2 0x240 SWAP6 SWAP5 SWAP4 SWAP3 SWAP2 SWAP1 PUSH2 0xCA1 JUMP JUMPDEST PUSH1 0x40 MLOAD DUP1 SWAP2 SUB SWAP1 RETURN JUMPDEST PUSH1 0x0 DUP1 SLOAD SWAP1 PUSH2 0x100 EXP SWAP1 DIV PUSH20 0xFFFFFFFFFFFFFFFFFFFFFFFFFFFFFFFFFFFFFFFF AND PUSH20 0xFFFFFFFFFFFFFFFFFFFFFFFFFFFFFFFFFFFFFFFF AND CALLER PUSH20 0xFFFFFFFFFFFFFFFFFFFFFFFFFFFFFFFFFFFFFFFF AND EQ PUSH2 0x2A1 JUMPI PUSH1 0x0 DUP1 REVERT JUMPDEST PUSH1 0x0 PUSH1 0x3 PUSH1 0x0 DUP4 DUP2 MSTORE PUSH1 0x20 ADD SWAP1 DUP2 MSTORE PUSH1 0x20 ADD PUSH1 0x0 KECCAK256 SWAP1 POP DUP1 PUSH1 0x2 ADD PUSH1 0x14 SWAP1 SLOAD SWAP1 PUSH2 0x100 EXP SWAP1 DIV PUSH1 0xFF AND ISZERO PUSH2 0x2D4 JUMPI PUSH1 0x0 DUP1 REVERT JUMPDEST PUSH1 0x2 PUSH1 0x5 SLOAD PUSH2 0x2E3 SWAP2 SWAP1 PUSH2 0xD52 JUMP JUMPDEST DUP2 PUSH1 0x3 ADD SLOAD GT PUSH2 0x2F2 JUMPI PUSH1 0x0 DUP1 REVERT JUMPDEST DUP1 PUSH1 0x2 ADD PUSH1 0x0 SWAP1 SLOAD SWAP1 PUSH2 0x100 EXP SWAP1 DIV PUSH20 0xFFFFFFFFFFFFFFFFFFFFFFFFFFFFFFFFFFFFFFFF AND PUSH20 0xFFFFFFFFFFFFFFFFFFFFFFFFFFFFFFFFFFFFFFFF AND PUSH2 0x8FC DUP3 PUSH1 0x1 ADD SLOAD SWAP1 DUP2 ISZERO MUL SWAP1 PUSH1 0x40 MLOAD PUSH1 0x0 PUSH1 0x40 MLOAD DUP1 DUP4 SUB DUP2 DUP6 DUP9 DUP9 CALL SWAP4 POP POP POP POP ISZERO DUP1 ISZERO PUSH2 0x360 JUMPI RETURNDATASIZE PUSH1 0x0 DUP1 RETURNDATACOPY RETURNDATASIZE PUSH1 0x0 REVERT JUMPDEST POP PUSH1 0x1 DUP2 PUSH1 0x2 ADD PUSH1 0x14 PUSH2 0x100 EXP DUP2 SLOAD DUP2 PUSH1 0xFF MUL NOT AND SWAP1 DUP4 ISZERO ISZERO MUL OR SWAP1 SSTORE POP POP POP JUMP JUMPDEST PUSH1 0x2 PUSH1 0x20 MSTORE DUP1 PUSH1 0x0 MSTORE PUSH1 0x40 PUSH1 0x0 KECCAK256 PUSH1 0x0 SWAP2 POP SLOAD SWAP1 PUSH2 0x100 EXP SWAP1 DIV PUSH1 0xFF AND DUP2 JUMP JUMPDEST PUSH1 0x0 PUSH1 0x4 SLOAD SWAP1 POP SWAP1 JUMP JUMPDEST PUSH1 0x0 DUP1 SLOAD SWAP1 PUSH2 0x100 EXP SWAP1 DIV PUSH20 0xFFFFFFFFFFFFFFFFFFFFFFFFFFFFFFFFFFFFFFFF AND DUP2 JUMP JUMPDEST PUSH1 0x3 PUSH1 0x20 MSTORE DUP1 PUSH1 0x0 MSTORE PUSH1 0x40 PUSH1 0x0 KECCAK256 PUSH1 0x0 SWAP2 POP SWAP1 POP DUP1 PUSH1 0x0 ADD DUP1 SLOAD PUSH2 0x3F3 SWAP1 PUSH2 0xDB2 JUMP JUMPDEST DUP1 PUSH1 0x1F ADD PUSH1 0x20 DUP1 SWAP2 DIV MUL PUSH1 0x20 ADD PUSH1 0x40 MLOAD SWAP1 DUP2 ADD PUSH1 0x40 MSTORE DUP1 SWAP3 SWAP2 SWAP1 DUP2 DUP2 MSTORE PUSH1 0x20 ADD DUP3 DUP1 SLOAD PUSH2 0x41F SWAP1 PUSH2 0xDB2 JUMP JUMPDEST DUP1 ISZERO PUSH2 0x46C JUMPI DUP1 PUSH1 0x1F LT PUSH2 0x441 JUMPI PUSH2 0x100 DUP1 DUP4 SLOAD DIV MUL DUP4 MSTORE SWAP2 PUSH1 0x20 ADD SWAP2 PUSH2 0x46C JUMP JUMPDEST DUP3 ADD SWAP2 SWAP1 PUSH1 0x0 MSTORE PUSH1 0x20 PUSH1 0x0 KECCAK256 SWAP1 JUMPDEST DUP2 SLOAD DUP2 MSTORE SWAP1 PUSH1 0x1 ADD SWAP1 PUSH1 0x20 ADD DUP1 DUP4 GT PUSH2 0x44F JUMPI DUP3 SWAP1 SUB PUSH1 0x1F AND DUP3 ADD SWAP2 JUMPDEST POP POP POP POP POP SWAP1 DUP1 PUSH1 0x1 ADD SLOAD SWAP1 DUP1 PUSH1 0x2 ADD PUSH1 0x0 SWAP1 SLOAD SWAP1 PUSH2 0x100 EXP SWAP1 DIV PUSH20 0xFFFFFFFFFFFFFFFFFFFFFFFFFFFFFFFFFFFFFFFF AND SWAP1 DUP1 PUSH1 0x2 ADD PUSH1 0x14 SWAP1 SLOAD SWAP1 PUSH2 0x100 EXP SWAP1 DIV PUSH1 0xFF AND SWAP1 DUP1 PUSH1 0x3 ADD SLOAD SWAP1 POP DUP6 JUMP JUMPDEST PUSH1 0x0 DUP1 SLOAD SWAP1 PUSH2 0x100 EXP SWAP1 DIV PUSH20 0xFFFFFFFFFFFFFFFFFFFFFFFFFFFFFFFFFFFFFFFF AND PUSH20 0xFFFFFFFFFFFFFFFFFFFFFFFFFFFFFFFFFFFFFFFF AND CALLER PUSH20 0xFFFFFFFFFFFFFFFFFFFFFFFFFFFFFFFFFFFFFFFF AND EQ PUSH2 0x513 JUMPI PUSH1 0x0 DUP1 REVERT JUMPDEST PUSH1 0x0 PUSH1 0x3 PUSH1 0x0 PUSH1 0x4 PUSH1 0x0 DUP2 SLOAD DUP1 SWAP3 SWAP2 SWAP1 PUSH2 0x52C SWAP1 PUSH2 0xDE4 JUMP JUMPDEST SWAP2 SWAP1 POP SSTORE DUP2 MSTORE PUSH1 0x20 ADD SWAP1 DUP2 MSTORE PUSH1 0x20 ADD PUSH1 0x0 KECCAK256 SWAP1 POP DUP4 DUP2 PUSH1 0x0 ADD SWAP1 DUP1 MLOAD SWAP1 PUSH1 0x20 ADD SWAP1 PUSH2 0x558 SWAP3 SWAP2 SWAP1 PUSH2 0x7DB JUMP JUMPDEST POP DUP3 DUP2 PUSH1 0x1 ADD DUP2 SWAP1 SSTORE POP DUP2 DUP2 PUSH1 0x2 ADD PUSH1 0x0 PUSH2 0x100 EXP DUP2 SLOAD DUP2 PUSH20 0xFFFFFFFFFFFFFFFFFFFFFFFFFFFFFFFFFFFFFFFF MUL NOT AND SWAP1 DUP4 PUSH20 0xFFFFFFFFFFFFFFFFFFFFFFFFFFFFFFFFFFFFFFFF AND MUL OR SWAP1 SSTORE POP PUSH1 0x0 DUP2 PUSH1 0x2 ADD PUSH1 0x14 PUSH2 0x100 EXP DUP2 SLOAD DUP2 PUSH1 0xFF MUL NOT AND SWAP1 DUP4 ISZERO ISZERO MUL OR SWAP1 SSTORE POP PUSH1 0x0 DUP2 PUSH1 0x3 ADD DUP2 SWAP1 SSTORE POP POP POP POP POP JUMP JUMPDEST PUSH1 0x1 SLOAD DUP2 JUMP JUMPDEST PUSH1 0x1 SLOAD CALLVALUE LT ISZERO PUSH2 0x5E7 JUMPI PUSH1 0x0 DUP1 REVERT JUMPDEST PUSH1 0x5 PUSH1 0x0 DUP2 SLOAD DUP1 SWAP3 SWAP2 SWAP1 PUSH2 0x5FA SWAP1 PUSH2 0xDE4 JUMP JUMPDEST SWAP2 SWAP1 POP SSTORE POP PUSH1 0x1 PUSH1 0x2 PUSH1 0x0 CALLER PUSH20 0xFFFFFFFFFFFFFFFFFFFFFFFFFFFFFFFFFFFFFFFF AND PUSH20 0xFFFFFFFFFFFFFFFFFFFFFFFFFFFFFFFFFFFFFFFF AND DUP2 MSTORE PUSH1 0x20 ADD SWAP1 DUP2 MSTORE PUSH1 0x20 ADD PUSH1 0x0 KECCAK256 PUSH1 0x0 PUSH2 0x100 EXP DUP2 SLOAD DUP2 PUSH1 0xFF MUL NOT AND SWAP1 DUP4 ISZERO ISZERO MUL OR SWAP1 SSTORE POP JUMP JUMPDEST PUSH1 0x0 PUSH1 0x3 PUSH1 0x0 DUP4 DUP2 MSTORE PUSH1 0x20 ADD SWAP1 DUP2 MSTORE PUSH1 0x20 ADD PUSH1 0x0 KECCAK256 SWAP1 POP PUSH1 0x2 PUSH1 0x0 CALLER PUSH20 0xFFFFFFFFFFFFFFFFFFFFFFFFFFFFFFFFFFFFFFFF AND PUSH20 0xFFFFFFFFFFFFFFFFFFFFFFFFFFFFFFFFFFFFFFFF AND DUP2 MSTORE PUSH1 0x20 ADD SWAP1 DUP2 MSTORE PUSH1 0x20 ADD PUSH1 0x0 KECCAK256 PUSH1 0x0 SWAP1 SLOAD SWAP1 PUSH2 0x100 EXP SWAP1 DIV PUSH1 0xFF AND PUSH2 0x6C6 JUMPI PUSH1 0x0 DUP1 REVERT JUMPDEST DUP1 PUSH1 0x4 ADD PUSH1 0x0 CALLER PUSH20 0xFFFFFFFFFFFFFFFFFFFFFFFFFFFFFFFFFFFFFFFF AND PUSH20 0xFFFFFFFFFFFFFFFFFFFFFFFFFFFFFFFFFFFFFFFF AND DUP2 MSTORE PUSH1 0x20 ADD SWAP1 DUP2 MSTORE PUSH1 0x20 ADD PUSH1 0x0 KECCAK256 PUSH1 0x0 SWAP1 SLOAD SWAP1 PUSH2 0x100 EXP SWAP1 DIV PUSH1 0xFF AND ISZERO PUSH2 0x71F JUMPI PUSH1 0x0 DUP1 REVERT JUMPDEST DUP1 PUSH1 0x3 ADD PUSH1 0x0 DUP2 SLOAD DUP1 SWAP3 SWAP2 SWAP1 PUSH2 0x734 SWAP1 PUSH2 0xDE4 JUMP JUMPDEST SWAP2 SWAP1 POP SSTORE POP PUSH1 0x1 DUP2 PUSH1 0x4 ADD PUSH1 0x0 CALLER PUSH20 0xFFFFFFFFFFFFFFFFFFFFFFFFFFFFFFFFFFFFFFFF AND PUSH20 0xFFFFFFFFFFFFFFFFFFFFFFFFFFFFFFFFFFFFFFFF AND DUP2 MSTORE PUSH1 0x20 ADD SWAP1 DUP2 MSTORE PUSH1 0x20 ADD PUSH1 0x0 KECCAK256 PUSH1 0x0 PUSH2 0x100 EXP DUP2 SLOAD DUP2 PUSH1 0xFF MUL NOT AND SWAP1 DUP4 ISZERO ISZERO MUL OR SWAP1 SSTORE POP POP POP JUMP JUMPDEST PUSH1 0x0 DUP1 PUSH1 0x0 DUP1 PUSH1 0x0 PUSH1 0x1 SLOAD SELFBALANCE PUSH1 0x4 SLOAD PUSH1 0x5 SLOAD PUSH1 0x0 DUP1 SLOAD SWAP1 PUSH2 0x100 EXP SWAP1 DIV PUSH20 0xFFFFFFFFFFFFFFFFFFFFFFFFFFFFFFFFFFFFFFFF AND SWAP5 POP SWAP5 POP SWAP5 POP SWAP5 POP SWAP5 POP SWAP1 SWAP2 SWAP3 SWAP4 SWAP5 JUMP JUMPDEST DUP3 DUP1 SLOAD PUSH2 0x7E7 SWAP1 PUSH2 0xDB2 JUMP JUMPDEST SWAP1 PUSH1 0x0 MSTORE PUSH1 0x20 PUSH1 0x0 KECCAK256 SWAP1 PUSH1 0x1F ADD PUSH1 0x20 SWAP1 DIV DUP2 ADD SWAP3 DUP3 PUSH2 0x809 JUMPI PUSH1 0x0 DUP6 SSTORE PUSH2 0x850 JUMP JUMPDEST DUP3 PUSH1 0x1F LT PUSH2 0x822 JUMPI DUP1 MLOAD PUSH1 0xFF NOT AND DUP4 DUP1 ADD OR DUP6 SSTORE PUSH2 0x850 JUMP JUMPDEST DUP3 DUP1 ADD PUSH1 0x1 ADD DUP6 SSTORE DUP3 ISZERO PUSH2 0x850 JUMPI SWAP2 DUP3 ADD JUMPDEST DUP3 DUP2 GT ISZERO PUSH2 0x84F JUMPI DUP3 MLOAD DUP3 SSTORE SWAP2 PUSH1 0x20 ADD SWAP2 SWAP1 PUSH1 0x1 ADD SWAP1 PUSH2 0x834 JUMP JUMPDEST JUMPDEST POP SWAP1 POP PUSH2 0x85D SWAP2 SWAP1 PUSH2 0x861 JUMP JUMPDEST POP SWAP1 JUMP JUMPDEST JUMPDEST DUP1 DUP3 GT ISZERO PUSH2 0x87A JUMPI PUSH1 0x0 DUP2 PUSH1 0x0 SWAP1 SSTORE POP PUSH1 0x1 ADD PUSH2 0x862 JUMP JUMPDEST POP SWAP1 JUMP JUMPDEST PUSH1 0x0 PUSH1 0x40 MLOAD SWAP1 POP SWAP1 JUMP JUMPDEST PUSH1 0x0 DUP1 REVERT JUMPDEST PUSH1 0x0 DUP1 REVERT JUMPDEST PUSH1 0x0 DUP2 SWAP1 POP SWAP2 SWAP1 POP JUMP JUMPDEST PUSH2 0x8A5 DUP2 PUSH2 0x892 JUMP JUMPDEST DUP2 EQ PUSH2 0x8B0 JUMPI PUSH1 0x0 DUP1 REVERT JUMPDEST POP JUMP JUMPDEST PUSH1 0x0 DUP2 CALLDATALOAD SWAP1 POP PUSH2 0x8C2 DUP2 PUSH2 0x89C JUMP JUMPDEST SWAP3 SWAP2 POP POP JUMP JUMPDEST PUSH1 0x0 PUSH1 0x20 DUP3 DUP5 SUB SLT ISZERO PUSH2 0x8DE JUMPI PUSH2 0x8DD PUSH2 0x888 JUMP JUMPDEST JUMPDEST PUSH1 0x0 PUSH2 0x8EC DUP5 DUP3 DUP6 ADD PUSH2 0x8B3 JUMP JUMPDEST SWAP2 POP POP SWAP3 SWAP2 POP POP JUMP JUMPDEST PUSH1 0x0 PUSH20 0xFFFFFFFFFFFFFFFFFFFFFFFFFFFFFFFFFFFFFFFF DUP3 AND SWAP1 POP SWAP2 SWAP1 POP JUMP JUMPDEST PUSH1 0x0 PUSH2 0x920 DUP3 PUSH2 0x8F5 JUMP JUMPDEST SWAP1 POP SWAP2 SWAP1 POP JUMP JUMPDEST PUSH2 0x930 DUP2 PUSH2 0x915 JUMP JUMPDEST DUP2 EQ PUSH2 0x93B JUMPI PUSH1 0x0 DUP1 REVERT JUMPDEST POP JUMP JUMPDEST PUSH1 0x0 DUP2 CALLDATALOAD SWAP1 POP PUSH2 0x94D DUP2 PUSH2 0x927 JUMP JUMPDEST SWAP3 SWAP2 POP POP JUMP JUMPDEST PUSH1 0x0 PUSH1 0x20 DUP3 DUP5 SUB SLT ISZERO PUSH2 0x969 JUMPI PUSH2 0x968 PUSH2 0x888 JUMP JUMPDEST JUMPDEST PUSH1 0x0 PUSH2 0x977 DUP5 DUP3 DUP6 ADD PUSH2 0x93E JUMP JUMPDEST SWAP2 POP POP SWAP3 SWAP2 POP POP JUMP JUMPDEST PUSH1 0x0 DUP2 ISZERO ISZERO SWAP1 POP SWAP2 SWAP1 POP JUMP JUMPDEST PUSH2 0x995 DUP2 PUSH2 0x980 JUMP JUMPDEST DUP3 MSTORE POP POP JUMP JUMPDEST PUSH1 0x0 PUSH1 0x20 DUP3 ADD SWAP1 POP PUSH2 0x9B0 PUSH1 0x0 DUP4 ADD DUP5 PUSH2 0x98C JUMP JUMPDEST SWAP3 SWAP2 POP POP JUMP JUMPDEST PUSH2 0x9BF DUP2 PUSH2 0x892 JUMP JUMPDEST DUP3 MSTORE POP POP JUMP JUMPDEST PUSH1 0x0 PUSH1 0x20 DUP3 ADD SWAP1 POP PUSH2 0x9DA PUSH1 0x0 DUP4 ADD DUP5 PUSH2 0x9B6 JUMP JUMPDEST SWAP3 SWAP2 POP POP JUMP JUMPDEST PUSH2 0x9E9 DUP2 PUSH2 0x915 JUMP JUMPDEST DUP3 MSTORE POP POP JUMP JUMPDEST PUSH1 0x0 PUSH1 0x20 DUP3 ADD SWAP1 POP PUSH2 0xA04 PUSH1 0x0 DUP4 ADD DUP5 PUSH2 0x9E0 JUMP JUMPDEST SWAP3 SWAP2 POP POP JUMP JUMPDEST PUSH1 0x0 DUP2 MLOAD SWAP1 POP SWAP2 SWAP1 POP JUMP JUMPDEST PUSH1 0x0 DUP3 DUP3 MSTORE PUSH1 0x20 DUP3 ADD SWAP1 POP SWAP3 SWAP2 POP POP JUMP JUMPDEST PUSH1 0x0 JUMPDEST DUP4 DUP2 LT ISZERO PUSH2 0xA44 JUMPI DUP1 DUP3 ADD MLOAD DUP2 DUP5 ADD MSTORE PUSH1 0x20 DUP2 ADD SWAP1 POP PUSH2 0xA29 JUMP JUMPDEST DUP4 DUP2 GT ISZERO PUSH2 0xA53 JUMPI PUSH1 0x0 DUP5 DUP5 ADD MSTORE JUMPDEST POP POP POP POP JUMP JUMPDEST PUSH1 0x0 PUSH1 0x1F NOT PUSH1 0x1F DUP4 ADD AND SWAP1 POP SWAP2 SWAP1 POP JUMP JUMPDEST PUSH1 0x0 PUSH2 0xA75 DUP3 PUSH2 0xA0A JUMP JUMPDEST PUSH2 0xA7F DUP2 DUP6 PUSH2 0xA15 JUMP JUMPDEST SWAP4 POP PUSH2 0xA8F DUP2 DUP6 PUSH1 0x20 DUP7 ADD PUSH2 0xA26 JUMP JUMPDEST PUSH2 0xA98 DUP2 PUSH2 0xA59 JUMP JUMPDEST DUP5 ADD SWAP2 POP POP SWAP3 SWAP2 POP POP JUMP JUMPDEST PUSH1 0x0 PUSH1 0xA0 DUP3 ADD SWAP1 POP DUP2 DUP2 SUB PUSH1 0x0 DUP4 ADD MSTORE PUSH2 0xABD DUP2 DUP9 PUSH2 0xA6A JUMP JUMPDEST SWAP1 POP PUSH2 0xACC PUSH1 0x20 DUP4 ADD DUP8 PUSH2 0x9B6 JUMP JUMPDEST PUSH2 0xAD9 PUSH1 0x40 DUP4 ADD DUP7 PUSH2 0x9E0 JUMP JUMPDEST PUSH2 0xAE6 PUSH1 0x60 DUP4 ADD DUP6 PUSH2 0x98C JUMP JUMPDEST PUSH2 0xAF3 PUSH1 0x80 DUP4 ADD DUP5 PUSH2 0x9B6 JUMP JUMPDEST SWAP7 SWAP6 POP POP POP POP POP POP JUMP JUMPDEST PUSH1 0x0 DUP1 REVERT JUMPDEST PUSH1 0x0 DUP1 REVERT JUMPDEST PUSH32 0x4E487B7100000000000000000000000000000000000000000000000000000000 PUSH1 0x0 MSTORE PUSH1 0x41 PUSH1 0x4 MSTORE PUSH1 0x24 PUSH1 0x0 REVERT JUMPDEST PUSH2 0xB3F DUP3 PUSH2 0xA59 JUMP JUMPDEST DUP2 ADD DUP2 DUP2 LT PUSH8 0xFFFFFFFFFFFFFFFF DUP3 GT OR ISZERO PUSH2 0xB5E JUMPI PUSH2 0xB5D PUSH2 0xB07 JUMP JUMPDEST JUMPDEST DUP1 PUSH1 0x40 MSTORE POP POP POP JUMP JUMPDEST PUSH1 0x0 PUSH2 0xB71 PUSH2 0x87E JUMP JUMPDEST SWAP1 POP PUSH2 0xB7D DUP3 DUP3 PUSH2 0xB36 JUMP JUMPDEST SWAP2 SWAP1 POP JUMP JUMPDEST PUSH1 0x0 PUSH8 0xFFFFFFFFFFFFFFFF DUP3 GT ISZERO PUSH2 0xB9D JUMPI PUSH2 0xB9C PUSH2 0xB07 JUMP JUMPDEST JUMPDEST PUSH2 0xBA6 DUP3 PUSH2 0xA59 JUMP JUMPDEST SWAP1 POP PUSH1 0x20 DUP2 ADD SWAP1 POP SWAP2 SWAP1 POP JUMP JUMPDEST DUP3 DUP2 DUP4 CALLDATACOPY PUSH1 0x0 DUP4 DUP4 ADD MSTORE POP POP POP JUMP JUMPDEST PUSH1 0x0 PUSH2 0xBD5 PUSH2 0xBD0 DUP5 PUSH2 0xB82 JUMP JUMPDEST PUSH2 0xB67 JUMP JUMPDEST SWAP1 POP DUP3 DUP2 MSTORE PUSH1 0x20 DUP2 ADD DUP5 DUP5 DUP5 ADD GT ISZERO PUSH2 0xBF1 JUMPI PUSH2 0xBF0 PUSH2 0xB02 JUMP JUMPDEST JUMPDEST PUSH2 0xBFC DUP5 DUP3 DUP6 PUSH2 0xBB3 JUMP JUMPDEST POP SWAP4 SWAP3 POP POP POP JUMP JUMPDEST PUSH1 0x0 DUP3 PUSH1 0x1F DUP4 ADD SLT PUSH2 0xC19 JUMPI PUSH2 0xC18 PUSH2 0xAFD JUMP JUMPDEST JUMPDEST DUP2 CALLDATALOAD PUSH2 0xC29 DUP5 DUP3 PUSH1 0x20 DUP7 ADD PUSH2 0xBC2 JUMP JUMPDEST SWAP2 POP POP SWAP3 SWAP2 POP POP JUMP JUMPDEST PUSH1 0x0 DUP1 PUSH1 0x0 PUSH1 0x60 DUP5 DUP7 SUB SLT ISZERO PUSH2 0xC4B JUMPI PUSH2 0xC4A PUSH2 0x888 JUMP JUMPDEST JUMPDEST PUSH1 0x0 DUP5 ADD CALLDATALOAD PUSH8 0xFFFFFFFFFFFFFFFF DUP2 GT ISZERO PUSH2 0xC69 JUMPI PUSH2 0xC68 PUSH2 0x88D JUMP JUMPDEST JUMPDEST PUSH2 0xC75 DUP7 DUP3 DUP8 ADD PUSH2 0xC04 JUMP JUMPDEST SWAP4 POP POP PUSH1 0x20 PUSH2 0xC86 DUP7 DUP3 DUP8 ADD PUSH2 0x8B3 JUMP JUMPDEST SWAP3 POP POP PUSH1 0x40 PUSH2 0xC97 DUP7 DUP3 DUP8 ADD PUSH2 0x93E JUMP JUMPDEST SWAP2 POP POP SWAP3 POP SWAP3 POP SWAP3 JUMP JUMPDEST PUSH1 0x0 PUSH1 0xA0 DUP3 ADD SWAP1 POP PUSH2 0xCB6 PUSH1 0x0 DUP4 ADD DUP9 PUSH2 0x9B6 JUMP JUMPDEST PUSH2 0xCC3 PUSH1 0x20 DUP4 ADD DUP8 PUSH2 0x9B6 JUMP JUMPDEST PUSH2 0xCD0 PUSH1 0x40 DUP4 ADD DUP7 PUSH2 0x9B6 JUMP JUMPDEST PUSH2 0xCDD PUSH1 0x60 DUP4 ADD DUP6 PUSH2 0x9B6 JUMP JUMPDEST PUSH2 0xCEA PUSH1 0x80 DUP4 ADD DUP5 PUSH2 0x9E0 JUMP JUMPDEST SWAP7 SWAP6 POP POP POP POP POP POP JUMP JUMPDEST PUSH32 0x4E487B7100000000000000000000000000000000000000000000000000000000 PUSH1 0x0 MSTORE PUSH1 0x12 PUSH1 0x4 MSTORE PUSH1 0x24 PUSH1 0x0 REVERT JUMPDEST PUSH32 0x4E487B7100000000000000000000000000000000000000000000000000000000 PUSH1 0x0 MSTORE PUSH1 0x11 PUSH1 0x4 MSTORE PUSH1 0x24 PUSH1 0x0 REVERT JUMPDEST PUSH1 0x0 PUSH2 0xD5D DUP3 PUSH2 0x892 JUMP JUMPDEST SWAP2 POP PUSH2 0xD68 DUP4 PUSH2 0x892 JUMP JUMPDEST SWAP3 POP DUP3 PUSH2 0xD78 JUMPI PUSH2 0xD77 PUSH2 0xCF4 JUMP JUMPDEST JUMPDEST DUP3 DUP3 DIV SWAP1 POP SWAP3 SWAP2 POP POP JUMP JUMPDEST PUSH32 0x4E487B7100000000000000000000000000000000000000000000000000000000 PUSH1 0x0 MSTORE PUSH1 0x22 PUSH1 0x4 MSTORE PUSH1 0x24 PUSH1 0x0 REVERT JUMPDEST PUSH1 0x0 PUSH1 0x2 DUP3 DIV SWAP1 POP PUSH1 0x1 DUP3 AND DUP1 PUSH2 0xDCA JUMPI PUSH1 0x7F DUP3 AND SWAP2 POP JUMPDEST PUSH1 0x20 DUP3 LT DUP2 EQ ISZERO PUSH2 0xDDE JUMPI PUSH2 0xDDD PUSH2 0xD83 JUMP JUMPDEST JUMPDEST POP SWAP2 SWAP1 POP JUMP JUMPDEST PUSH1 0x0 PUSH2 0xDEF DUP3 PUSH2 0x892 JUMP JUMPDEST SWAP2 POP PUSH32 0xFFFFFFFFFFFFFFFFFFFFFFFFFFFFFFFFFFFFFFFFFFFFFFFFFFFFFFFFFFFFFFFF DUP3 EQ ISZERO PUSH2 0xE22 JUMPI PUSH2 0xE21 PUSH2 0xD23 JUMP JUMPDEST JUMPDEST PUSH1 0x1 DUP3 ADD SWAP1 POP SWAP2 SWAP1 POP JUMP INVALID LOG2 PUSH5 0x6970667358 0x22 SLT KECCAK256 LT 0xB8 0xEE PUSH26 0xD916DE9F791A1D6713AA4651ACD5B6D2533A36DBE44952424955 DUP4 SWAP7 PUSH5 0x736F6C6343 STOP ADDMOD MULMOD STOP CALLER LOG2 PUSH5 0x6970667358 0x22 SLT KECCAK256 PUSH12 0x9834F323BDD75044F422EC0F DELEGATECALL BYTE 0x21 PUSH12 0x673A0C8DF42326BACD416F3B 0xD6 0xAD MOD PUSH5 0x736F6C6343 STOP ADDMOD MULMOD STOP CALLER "},"gasEstimates":{"creation":{"codeDepositCost":"1032400","executionCost":"1074","totalCost":"1033474"},"external":{"createCampaign(uint256)":"infinite","deplopyedCampaigns(uint256)":"4956","getDeployedCampaigns()":"infinite"}},"methodIdentifiers":{"createCampaign(uint256)":"a3303a75","deplopyedCampaigns(uint256)":"60bf4744","getDeployedCampaigns()":"4acb9d4f"}},"storageLayout":{"storage":[{"astId":4,"contract":"Campaign.sol:CampaignFactory","label":"deplopyedCampaigns","offset":0,"slot":"0","type":"t_array(t_address)dyn_storage"}],"types":{"t_address":{"encoding":"inplace","label":"address","numberOfBytes":"20"},"t_array(t_address)dyn_storage":{"base":"t_address","encoding":"dynamic_array","label":"address[]","numberOfBytes":"32"}}},"userdoc":{"kind":"user","methods":{},"version":1}}